:020000040800F2
:1000000078A1002005E20008A9DD0008ABDD0008AA
:10001000ADDD0008AFDD0008B1DD00080000000024
:10002000000000000000000000000000437E000807
:10003000B3DD000800000000FD7D00080D7600081B
:100040003BE200083FE2000843E2000847E2000804
:100050004BE200084FE2000853E20008B5DD00085B
:1000600057E200085BE200085FE2000863E2000874
:1000700067E200086BE200086FE20008BBDD0008E1
:1000800073E2000877E200087BE200087FE20008E4
:1000900083E2000887E200088BE200088FE2000894
:1000A00093E2000897E200089BE200089FE2000844
:1000B000C1DD0008A3E20008A7E20008ABE20008E7
:1000C000AFE20008B3E20008B7E20008BBE20008B4
:1000D000BFE20008C7DD0008CDDD0008C3E200086C
:1000E000C7E20008CBE20008CFE20008D3E2000834
:1000F000D7E20008DBE20008DFE20008E3E20008E4
:10010000E7E20008EBE20008EFE20008F3E2000893
:10011000D3DD0008F7E2000847DE000857DE0008DC
:10012000FBE20008FFE200085DDE000803E30008D0
:1001300000F5E0700268914203D343681A4491428B
:1001400002D380680028F5D17047DFF86C17086883
:1001500090B94FF4805048604FF480324FF0FF3038
:10016000C86008610420DFF854378A604861C3F82A
:10017000BC01DFF84C0708600120704701F108035B
:1001800013F0070F0EBF0023C3F1080303F00703AA
:100190001944D21A8161C26042F001034B60091D0B
:1001A0004FF0280C41F802C0DFF80C271369C36137
:1001B00070472DE9FC4B074601F1080010F0070FCE
:1001C0000FBF8946C0F1080000F0070001EB0009ED
:1001D00002F1080111F0070F06D002F10800C0F18A
:1001E000080000F0070002441546A5EB090009EBE2
:1001F0000306A0EB030B43F00303C9F80430AE423F
:1002000028BF01F027FE2879C10758BF01F022FE60
:10021000BBF1100F38BF01F01DFEB869854208D14F
:10022000F9688B44C7F80CB0BE614BF001007060F8
:1002300051E1786985420AD1B9688B44C7F808B0A2
:100240007E614BF00100706046F80BB043E16868D6
:1002500000F00301012940F0AC80C008C00001900B
:10026000C0081F2839D8AC68D5F80C8000904545E7
:1002700008BF01F0EFFDA54208BF01F0EBFD686883
:100280000099C008C000B0EBC10F18BF01F0E2FD3B
:10029000009907F1280000EBC100844206D03969BB
:1002A0008C42C0F08180E268AA427DD1A04506D18F
:1002B00000983968012383409943396076E080458E
:1002C00006D0396988456FD3D8F80800A8426BD1A9
:1002D000C4F80C80C8F8084068E0EC68D5F81880CD
:1002E000AC420CD0A8683969884223D3C268AA42BC
:1002F00004BFA168A9421DD1C460A0601CE005F143
:1003000014010C6834B905F110010C68A4B101E0C6
:1003100011460C6804F114021068002802BF04F1B1
:10032000100210680028F3D13869814202D30022FC
:100330000A6001E001F08EFDB8F1000F36D0E969E6
:1003400007F5987000EB81000268954208D10460BF
:10035000A4B9E8697968012282409143796025E077
:100360003869804508D3D8F81010A94214BFC8F8DE
:100370001440C8F8104001E001F06CFDB4B13969D7
:100380008C4211D3C4F81880286928B1884226BF4E
:100390002061846101F05EFD686938B13969884285
:1003A00002D36061846101E001F054FD01996D1890
:1003B0008B4469684908490069604BF0010070602E
:1003C0004FEADB0446F80BB01F2C23D807F12800B6
:1003D00000EBC4084546BBF1100F38BF01F03AFDF1
:1003E000386820FA04F1CA0705D4012101FA04F49F
:1003F00004433C6007E0D8F80800396988422CBF04
:10040000054601F027FDC8F80860EE60B560C6F843
:100410000C8060E05FEA1B2008BF002123D0B0F50C
:10042000803F28BF1F211ED2A0F58072120C02F05F
:1004300008029040A0F58051090C01F004018840A9
:10044000A0F580431B0CC2F10E0203F00203521A06
:10045000D21A984002EBD032D01D2BFA00F101F0F5
:10046000010101EB4201F161002307F5987273610C
:1004700002EB810033617A6822FA01F3DC0707D4CA
:10048000012303FA01F1114379600660B0611DE0B8
:1004900002681F291DBF4908C1F119010BFA01F1BA
:1004A000594600E002465068C008C000584516D0C2
:1004B00002F11003C80F03EB8003490018680028FD
:1004C000F0D13869834204D31E60B261F660B66031
:1004D00001E001F0BFFC09F10800BDE8F68B3969C5
:1004E00090688A4228BF8842F3D3C6609660B060A5
:1004F000F2600020B061EEE72DE9FE4F04468B4626
:10050000A5692E46904699463146FFF711FE0268CE
:10051000416802EB010AAAF1270111F007000EBFA2
:100520000021C1F1080101F007010AEB0100A0F16F
:100530002F0706F110018F4238BF374607F1180226
:10054000002101920091A8F1280259462046FFF7A8
:1005500015FE07F1080010F0070F18BF01F07AFC34
:100560001B20786007F1080104F5E07090E80C505A
:1005700081E80C50C0F800B0C0F80480C0F80C90BE
:10058000816007220198009900E0001D491C00F1DC
:10059000080353454260F8D30129D8BF01F05AFC43
:1005A000B74200F09580BF1B301D321DC15949086C
:1005B0004900D15147F0010070604FEAD70BF75165
:1005C000BBF11F0F21D804EBCB0000F12805A84692
:1005D000102F38BF01F03EFC206820FA0BF1CA074B
:1005E00005D4012101FA0BF10843206006E0A86858
:1005F000216988422CBF804601F02CFCAE60C8F80F
:100600000C60C6F80880F5606FE0380A08BF00216A
:1006100023D0B0F5803F28BF1F211ED2A0F58072E5
:10062000120C02F008029040A0F58051090C01F074
:1006300004018840A0F580431B0CC2F10E0203F0B8
:100640000203521AD21A984002EBD032D01D27FA78
:1006500000F101F0010101EB420104EB81020023F2
:1006600002F59870F16173613361626822FA01F3F7
:10067000DB0707D4012303FA01F11143616006602F
:10068000B0611DE002681F291DBF4908C1F11901B1
:1006900007FA01F1394600E002465068C008C00080
:1006A000B84216D002F11003C80F03EB80034900D3
:1006B00018680028F0D12069834204D31E60B2611B
:1006C000F660B56011E003B0BDE8F04F01F0C2BBC9
:1006D0000BE0216990688A4228BF8842F3D3C66044
:1006E0009560B060F2600020B06103B0BDE8F08FAB
:1006F0002DE9F041704F05463868884608B9FFF784
:1007000024FDB96801EB08002F30491E20EA0101E1
:1007100088457DD205F5D876B06828B13268891849
:100720008A4275D2884273D301F0D4FB01001CBF0A
:100730000C6811F1010F6BD03068201805F5D872E4
:1007400030605368984238BF18467060A86960BB33
:10075000286908B1814200D22961316174610020A9
:10076000F0614FF0FF303A686A62286205F12802B2
:100770000020D260926002F1080757611761801C67
:1007800010322028F5D34D48854208BFA4F1280235
:1007900028D055F8040CC00805EBC002A2F10800EF
:1007A0000A19121A283A01461CE005F5E0700246C3
:1007B00000E092687AB3136857681F44B942F8D1D1
:1007C000137B1F0727D4AB691768BB4223D3D2F82A
:1007D00004C06744BB421ED2A444C2F804C0E86807
:1007E000A96922182846FFF7C9FC1FE08068C0B13C
:1007F00003689342FAD1027B130712D402680160A6
:100800004368E418446043462846BDE8F041D0E41C
:100810000020BDE8F0812A69914238BF29610A1998
:10082000E5E7002322462846FFF766FEE868804594
:10083000EED2A0EB0800A969E86001EB0802AA610A
:1008400040F00100506048F00300486001F10800EA
:10085000BDE8F08130B4184B1A6882B94FF4805269
:100860005A604FF480344FF0FF32DA601A6104228C
:10087000124D9C605A61C5F8BC21114A1A6011F1F1
:10088000400F17D28269AAB1C368283199420BD2AE
:1008900000F5E0710C68A24203D34D682C44A242DB
:1008A00002D389680029F5D1C16999423CBF4FF054
:1008B000FF32C26101F0C6BA209100200C880020EE
:1008C0006859883C2DE9F04705460E469146706808
:1008D000C10706EB09083AD4346810F0030F00F0A2
:1008E00034826042296906448E42A144C0F02982C4
:1008F0006869864200F0BC80E4081F2C55D8D6F801
:100900000CA0B768564508BF01F0A4FABE4208BF64
:1009100001F0A0FA7068C008C000B0EBC40F18BFA7
:1009200001F098FA05F1280000EBC400874205D0D9
:1009300029698F4236D3FA68B24233D1BA4523D1FE
:100940002868012101FA04F420EA04042C602969D2
:100950008845C0F0F681D8F80440A00700F1608116
:10096000AA69904540F09780E8684844E860AE6125
:1009700040F0010070606869864240F0E681002125
:100980006961A960BDE8F087824506D02869824583
:1009900008D3DAF80810B14204D1C7F80CA0CAF89D
:1009A0000870D4E701F056FAD1E7F468B769B442A9
:1009B0000BD0B068884222D3C168B14204BFA2689C
:1009C000B2421CD1C460A0601BE006F1140214689E
:1009D00034B906F1100214689CB101E01A4614689B
:1009E00004F114031868002802BF04F1100318680A
:1009F0000028F3D18A4202D30021116001E001F006
:100A000029FA002FA3D0F16905F5987000EB810059
:100A10000268964209D10460200011D1F06969682A
:100A2000012282409143696091E72869874205D39A
:100A30003969B14214BF7C613C6101E001F00AFAFE
:100A4000002C84D029698C42ACD3A761306928B1CD
:100A5000884226BF2061846101F0FCF9706900289A
:100A60003FF475AF296988429CD3606184616EE769
:100A700098F8040000F0030003287FF468AFC5F87D
:100A8000089049F00101D8F8040040084000C8F877
:100A9000040071600AE0686980450BD1A9686E6145
:100AA0008944C5F8089049F00100706046F8099043
:100AB000BDE8F087E408E400A144E4081F2C3AD81C
:100AC000D8F80CA0D8F80870D04508BF01F0C2F9DA
:100AD000B84508BF01F0BEF9D8F80400C008C0004E
:100AE000B0EBC40F18BF01F0B5F905F1280000EB19
:100AF000C400874207D029698F42C0F08380FA681A
:100B0000424540F07F80BA4507D12868012101FAAB
:100B100004F420EA04042C6076E0824506D02869BB
:100B200082456FD3DAF8081041456BD1C7F80CA0A5
:100B3000CAF8087068E0D8F80C40D8F81870444536
:100B40000CD0D8F80800884222D3C168414504BFC0
:100B5000A26842451CD1C460A0601BE008F11402E9
:100B6000146834B908F1100214689CB101E01A4607
:100B7000146804F114031868002802BF04F110037C
:100B800018680028F3D18A4202D30021116001E0E5
:100B900001F060F9002F37D0D8F81C1005F59870D7
:100BA00000EB8100026890450AD10460200012D158
:100BB000D8F81C006968012282409143696023E0F3
:100BC0002869874205D33969414514BF7C613C617E
:100BD00001E001F03FF9BCB129698C4212D3A76151
:100BE000D8F8100028B1884226BF2061846101F046
:100BF00031F9D8F8140038B12969884202D360610C
:100C0000846101E001F026F949F00100706046F8C6
:100C1000099069698E420CD1C5F80890BDE8F0874B
:100C200064086400C8F8044049F00100706046F8A8
:100C300009904FEAD9071F2F23D805F1280000EBB0
:100C4000C704A046B9F1100F38BF01F003F92868B6
:100C500020FA07F1CA0705D4012101FA07F7074373
:100C60002F6006E0A068296988422CBF804601F009
:100C7000F1F8A660C8F80C60C6F80880F460BDE81A
:100C8000F0875FEA192008BF002123D0B0F5803F2C
:100C900028BF1F211ED2A0F58072120C02F008029C
:100CA0009040A0F58051090C01F004018840A0F5A6
:100CB00080431B0CC2F10E0203F00203521AD21A37
:100CC000984002EBD032D01D29FA00F101F0010169
:100CD00001EB420105F59872002302EB8100F161FE
:100CE000736133616A6822FA01F3DC0707D40123D8
:100CF00003FA01F1114369600660B0611DE002680A
:100D00001F291DBF4908C1F1190109FA01F149461E
:100D100000E002465068C008C000484517D002F104
:100D20001003C80F03EB8003490018680028F0D1B6
:100D30002869834205D31E60B261F660B660BDE8E3
:100D4000F087BDE8F04701F085B8BDE8F087296974
:100D500090688A4228BF8842F3D3C6609660B0602C
:100D6000F2600020B061BDE8F0872DE9F84F002562
:100D70008946090AC9F1000B08BF002323D0B1F549
:100D8000803F28BF1F231ED2A1F58072120C02F0F3
:100D900008029140A1F580531B0C03F00403994015
:100DA000A1F58044240CC2F10E0204F00204D21A10
:100DB000121BA14002EBD132D11D29FA01F303F03D
:100DC000010303EB4203074607F5987858F8230020
:100DD00030B31F2B0FBF4C465C08C4F1190409FA4D
:100DE00004F4AC46594600E064004268D208D200E0
:100DF000A2EB09028A4203D21100054600F0698184
:100E0000426910304FEAD47B50F82B00002A1CBFF7
:100E1000824294460028E7D18B466046B0BBBDBBFA
:100E2000012202FA03F35B005842796803430B4046
:100E300000F04E81584203405B1E180B00F010007A
:100E4000C340590901F00801CB409A0802F004029E
:100E5000D3405C0804F002040818E3401018C3F300
:100E6000400620183044F3401B1858F823000DE0CA
:100E700008464168C908C900A1EB090159453CBFB2
:100E80008B46054601690029F2D140690028F0D15E
:100E9000002D00F01D81B868A0EB0900834580F0AB
:100EA000178139698D42C0F011816868C008C0009F
:100EB00009EB0B01884218BF00F0CCFF05EB0906D7
:100EC000B54280F00381EC68D5F818A0AC420CD094
:100ED000A8683969884223D3C268AA4204BFA168BE
:100EE000A9421DD1C460A0601CE005F114010C688A
:100EF00034B905F110010C68A4B101E011460C6889
:100F000004F114021068002802BF04F110021068F6
:100F10000028F3D13869814202D300220A6001E03F
:100F200000F098FFBAF1000F36D0E86908EB8000B6
:100F300001688D4209D10460200014D1E869796804
:100F4000012282409143796026E03869824508D3C6
:100F5000DAF81010A94214BFCAF81440CAF81040B9
:100F600001E000F077FFBCB13869844212D3C4F8C5
:100F700018A0286930B13969884226BF2061846190
:100F800000F068FF686938B13969884202D360614E
:100F9000846101E000F05EFFBBF1100F0CD2D94478
:100FA00049F00300291D6860281D51F8092042F00E
:100FB000010240F8092088E049F0030068604BF026
:100FC000010070604FEADB0046F80BB01F281DD807
:100FD00007EBC00101F12804396821FA00F2D307B8
:100FE000A34605D4012202FA00F00843386006E067
:100FF000A068396988422CBF834600F02BFFA660A9
:10100000CBF80C60C6F808B0F4605EE05FEA1B2025
:1010100008BF002123D0B0F5803F28BF1F211ED27A
:10102000A0F58072120C02F008029040A0F58051E9
:10103000090C01F004018840A0F580431B0CC2F1AB
:101040000E0203F00203521AD21A984002EBD03279
:10105000D01D2BFA00F101F0010101EB4201F16119
:1010600000227261326108EB81007A6822FA01F491
:10107000E30707D4012404FA01F111437960066003
:10108000B0611DE002681F291DBF4908C1F11901A7
:101090000BFA01F1594600E002465068C008C00052
:1010A000584518D002F11003C80F03EB8003490024
:1010B00018680028F0D13869834204D31E60B261F9
:1010C000F660B66001E000F0C5FE14E100F0C2FE7B
:1010D0000EE18B46A2E6396990688A4228BF8842B1
:1010E000F1D3C6609660B060F2600020B061ECE7BA
:1010F0002DE9F84F06468846716848420140491E6E
:10110000080B00F01000C1404A0902F00802D1406B
:101110008B0803F00403D9404D0805F002051018B0
:10112000E9401818C1F34004281806F5987A2044BD
:10113000E14009185AF821104868C008C0000D465F
:10114000A0EB080909E001464868C008C000A0EB10
:10115000080048453CBF81460D4608690028F2D189
:1011600049690029F0D130698542C0F0BF806968C3
:10117000C90808EB090BC900594518BF00F06AFE01
:1011800005EB08008542009080F0B080EF68AC6904
:10119000AF420CD0A8683169884223D3C268AA4202
:1011A00004BFB968A9421DD1C760B8601CE005F151
:1011B00014010F6837B905F110010F68A7B101E0FC
:1011C00011460F6807F114021068002802BF07F1EA
:1011D000100210680028F3D13069814202D3002246
:1011E0000A6001E000F036FE002C31D0E8690AEB1D
:1011F000800001688D4208D107608FB9E869716885
:10120000012282409143716022E03069844205D31B
:101210002169A94214BF6761276101E000F01AFE4D
:10122000B7B13069874211D3BC61286930B13169E7
:10123000884226BF3861876100F00CFE686938B1CA
:101240003169884202D37861876101E000F002FED3
:10125000B9F1100F0BD24BF00300291D6860281D57
:1012600051F80B2042F0010240F80B203DE048F01D
:1012700003012A1D696049F0010042F80800009945
:1012800041F80990D6F808804FEAD80BBBF1200F3F
:1012900028BF00F0DFFDB8F1000F22D006EBCB0035
:1012A000776900F12804A246B8F1100F38BF00F0AA
:1012B000D1FD306820FA0BF1CA0705D4012101FAEB
:1012C0000BF10843306006E0A068316988422CBF0A
:1012D000824600F0BFFDA760CAF80C70C7F808A0EE
:1012E000FC60C6F808900098706104E000F0B2FD60
:1012F0000020BDE8F28F05F10800BDE8F28F2DE96E
:10130000FE4F0546AFF30080F52DDFF8B86A80F098
:1013100004810B2D31BF10250B35ED08ED00306831
:10132000EC08E04010F0030F46D0C04300F001008D
:10133000041906F1280000EBC408E700D8F80850AB
:101340006868C008C000B84218BF00F083FDD5F837
:101350000890454508BF00F07DFD4D4508BF00F0F1
:1013600079FD6868C008C000B84218BF00F072FD7F
:10137000C84507D13068012101FA04F420EA0404C9
:1013800034600DE03069814508D3D9F80C10A942CA
:1013900004D1C8F80890C9F80C8001E000F05AFDAB
:1013A00047F00300291D6860281DCA5942F0010258
:1013B000C25105F10804F8E0B168A94280F0BE808E
:1013C000002800F0A1804FF0010808FA04F149005C
:1013D00000FA04F4484201430C4060420440641E99
:1013E000200B00F01000C440610901F00801CC405E
:1013F000A20802F00402D440630803F002030818B4
:10140000DC401018C4F3400718183818FC402418A2
:1014100006F1280000EBC40AE700DAF80890D9F8D2
:101420000400C008C000B84218BF00F013FDD9F88E
:1014300008B0D14508BF00F00DFDD94508BF00F048
:1014400009FDD9F80400C008C000B84218BF00F078
:1014500001FDDA4506D1306808FA04F420EA0404F4
:1014600034600DE031698B4508D3DBF80C0048454A
:1014700004D1CAF808B0CBF80CA001E000F0EAFCF7
:101480007F1B45F0030009F10402C9F8040047F08E
:101490000101515109EB05020192D751B4684FEA9D
:1014A000D40ABAF1200F28BF00F0D4FC34B3CDF831
:1014B00000A006F12800756900EBCA0AD346102C7B
:1014C00038BF00F0C7FC3168009821FA00F2D3075A
:1014D00004D408FA00F00843306007E0DAF80800A6
:1014E000316988422CBF834600F0B4FCCAF808502A
:1014F000CBF80C50C5F808B0C5F80CA0B76009F1DE
:1015000008040198706150E07068C0B32946304605
:10151000FFF7EEFD040011D047E015F1400F28BFA2
:101520004FF0FF350AD20B35ED087068ED0028B199
:1015300029463046FFF719FC040036D1B068A842AE
:101540001DD3411B726910290AD350197061B16013
:1015500041F001034360415045F0030555600BE045
:101560000021B1607161131D40F003015160111D34
:101570001C5844F001040C5002F1080415E0F06816
:1015800085420DD2401BB169F0604A19B26140F04A
:101590000100506045F003054D6001F1080404E0CE
:1015A00029463046FFF7A4F80446AFF300802046F2
:1015B000FFF79BB8002800D170472DE9F047A0F154
:1015C0000805AFF30080DFF8FC6731698D42C0F099
:1015D0005982686800F00302012A00F05382C208B1
:1015E0004FEAC209C20705EB090839D42C6810F08C
:1015F000030F00F04982604205448D42A144C0F0CF
:1016000041827069854200F0C680E408202C5ED2D9
:10161000D5F80CA0AF68554508BF00F01BFCBD42D3
:1016200008BF00F017FC6868C008C000B0EBC40F2A
:1016300018BF00F00FFC06F1280000EBC400874241
:1016400005D031698F423FD3FA68AA423CD1BA45EE
:101650002CD13068012101FA04F420EA040434603A
:10166000454580F00F82D8F80440E00740F10A8237
:10167000A10700F16881B069804540F09F80F16862
:10168000B5618944C6F80C9049F001006860716941
:101690008D4202D100207061B060F069484580F051
:1016A000F38100213046FFF7D5F8EDE1824506D001
:1016B0003069824508D3DAF80810A94204D1C7F886
:1016C0000CA0CAF80870CBE700F0C4FBC8E7EC68D0
:1016D000AF69AC420BD0A868884222D3C168A94246
:1016E00004BFA268AA421CD1C460A0601BE005F13F
:1016F0001402146834B905F1100214689CB101E0B9
:101700001A46146804F114031868002802BF04F193
:10171000100318680028F3D18A4202D30021116017
:1017200001E000F097FB002F9AD0E96906F5987068
:1017300000EB81000268954209D10460200011D1BC
:10174000E8697168012282409143716088E73069DD
:10175000874205D33969A94214BF7C613C6101E02D
:1017600000F078FB002C3FF47BAF31698C42ABD3A7
:10177000A761286928B1884226BF2061846100F0F2
:1017800069FB686900283FF46BAF316988429BD3DD
:101790006061846164E798F8040000F003000328A6
:1017A0007FF45EAFC6F8089049F00101D8F8040054
:1017B00040084000C8F8040069600AE0706980458C
:1017C0000AD1B16875618944C6F8089049F00100F2
:1017D000686045F8099057E1E408E400A144E40892
:1017E000202C3AD2D8F80CA0D8F80870D04508BF01
:1017F00000F030FBB84508BF00F02CFBD8F804001F
:10180000C008C000B0EBC40F18BF00F023FB06F106
:10181000280000EBC400874207D031698F42C0F036
:101820008580FA68424540F08180BA4507D130682A
:10183000012101FA04F420EA0404346078E08245CE
:1018400006D03069824571D3DAF8081041456DD170
:10185000C7F80CA0CAF808706AE0D8F80C40D8F8AD
:10186000187044450DD0D8F808003169884223D358
:10187000C268424504BFA16841451DD1C460A06053
:101880001CE008F114010C6834B908F110010C686F
:10189000A4B101E011460C6804F11402106800289C
:1018A00002BF04F1100210680028F3D130698142B0
:1018B00002D300220A6001E000F0CCFA002F37D0FA
:1018C000D8F81C1006F5987000EB8100026890456E
:1018D0000AD10460200012D1D8F81C0071680122DE
:1018E00082409143716023E03069874205D33969B2
:1018F000414514BF7C613C6101E000F0ABFABCB132
:1019000031698C4212D3A761D8F8100028B18842FF
:1019100026BF2061846100F09DFAD8F8140038B128
:101920003169884202D36061846101E000F092FA7B
:1019300049F00100686045F8099071698D420BD14A
:10194000C6F80890A0E064086400C8F8044049F0B4
:101950000100686045F809904FEAD907202F22D28C
:1019600006F1280000EBC704A046B9F1100F38BFFC
:1019700000F070FA306820FA07F1CA0705D4012197
:1019800001FA07F70743376006E0A068316988422B
:101990002CBF804600F05EFAA560C8F80C50C5F870
:1019A0000880EC6070E05FEA192008BF002123D0B6
:1019B000B0F5803F28BF1F211ED2A0F58072120C07
:1019C00002F008029040A0F58051090C01F00401DA
:1019D0008840A0F580431B0CC2F10E0203F0020305
:1019E000521AD21A984002EBD032D01D29FA00F1D7
:1019F00001F0010101EB420106F59872002302EBB0
:101A00008100E9616B612B61726822FA01F3DC07E6
:101A100007D4012303FA01F1114371600560A86145
:101A20001DE002681F291DBF4908C1F1190109FA0B
:101A300001F1494600E002465068C008C000484530
:101A400026D002F11003C80F03EB80034900186889
:101A50000028F0D13069834204D31D60AA61ED6093
:101A6000AD6001E000F0F6F9306A401E30620BD143
:101A7000D6F8C80100E080680028FCD14FF0FF30A4
:101A8000306201E000F0E6F9AFF30080BDE8F087D6
:101A9000316990688A4228BF8842E3D3C560956067
:101AA000A860EA600020A861DEE72DE9F84F0F4644
:101AB00006467B6831690024D808C0008F42814601
:101AC000C0F07A8103F00305012D00F0758107EB6A
:101AD000090A574580F07081DAF804B05FEACB75E7
:101AE00040F16A8113F0030F15460FD1E908202950
:101AF00024BF2A1D9042C0F06181DFF850138A682C
:101B00005200451BAA42C0F0598153E1A9451CD39C
:101B1000A9EB0504102CC0F04D8103F001032B4309
:101B200043F0020379197B6044F00302486840F0F7
:101B3000010048604A6008192246436843F00103E7
:101B400043603046FEF7BEFE34E1B269924516D1DD
:101B5000F0684844854280F0318103F00103441B62
:101B60002B4343F0020378197B6044F00102416883
:101B700041F0010141604260B061F4601AE17069B6
:101B800082452FD1B0688144A945C0F01781A9EBE7
:101B90000501102903F0010312D378191D4345F004
:101BA00002057D604218436843F00103436041F041
:101BB00001044460415053685B085B0053600EE0D1
:101BC00049EA030343F00203381D7B603A1D50F8D5
:101BD000091041F0010142F8091000200021706154
:101BE000B160E7E05FEA8B7000F1E8804FEADB006C
:101BF000C2009144A945C0F0E1804FEAD20BA9EBA5
:101C00000500BBF1200F00903BD2DAF80C40DAF867
:101C10000880A24508BF00F01DF9C24508BF00F0CA
:101C200019F9DAF80400C008C000B0EBCB0F18BFF8
:101C300000F010F906EBCB0000F12801884508D030
:101C400032699045C0F08980D8F80C10514540F0B9
:101C50008480444506D13068012202FA0BF18843A2
:101C600030607CE000F128018C4205D0306984426C
:101C700073D3A168514570D1C8F80C40C4F80880EE
:101C80006DE0DAF80C40DAF8188054450CD0DAF838
:101C90000800884222D3C168514504BFA26852455A
:101CA0001CD1C460A0601BE00AF11402146834B9AE
:101CB0000AF1100214689CB101E01A46146804F19C
:101CC00014031868002802BF04F1100318680028E4
:101CD000F3D18A4202D30021116001E000F0BAF88A
:101CE000B8F1000F3BD0DAF81C0006EB800101F5DB
:101CF0009870026892450AD10460200015D1DAF884
:101D00001C007168012282409143716027E03069B4
:101D1000804508D3D8F81010514514BFC8F81440B6
:101D2000C8F8104001E000F095F8C4B131698C4268
:101D300013D3C4F81880DAF8100028B1884226BFFF
:101D40002061846100F086F8DAF8140038B1316956
:101D5000884202D36061846101E000F07BF8009862
:101D60001028387900F001000DD249EA000040F057
:101D7000020078603A1D381D50F8091041F0010149
:101D800042F8091016E0284340F002007860791903
:101D9000486840F001004860009840F00300486047
:101DA00000980844426842F0010242603046009ABE
:101DB000FEF788FD3C4601E000F04CF82046BDE807
:101DC000F28F00000C88002070B505460E460024F6
:101DD00025B93046FFF793FA044631E016F1400F7B
:101DE0002ED20B2E31BF102406F10B04E408E400C0
:101DF000AFF3008001232246A5F108011448FFF744
:101E000054FE0446AFF300800CB1083418E03046AD
:101E1000FFF775FA040013D055F8042C12F0030FE5
:101E20000CBF08200420D208D200121AB24288BF88
:101E300032462946204600F063F82846FFF7BAFBF1
:101E4000204670BD30BC002070470000209100206B
:101E50000C880020012000F05FB8F0B40246106842
:101E600095681318506803EB5004C0071DD54D4406
:101E70001BE013F8017B05F8017B491EF9D1A0B1E5
:101E8000B60813F8011B06F00306032E08BF13F86B
:101E9000016B01EB06214942801C294405D011F851
:101EA000016B05F8016B401EF9D1A3420ED013F867
:101EB000016B16F0030104BF13F8011BC91C3009A4
:101EC0000F28DAD113F8010B0F30D6E7F0BC02F17E
:101ED0000C0070470749086808B1002070470648A1
:101EE000C008C00008600549C908C900091A016096
:101EF000704700BF6C9100207FA1002078C10020B6
:101F00004AB1000011F8013B521E00F8013B1CBF12
:101F100011F8013BF8E7704780B5AFF30080024A43
:101F200011001820ABBEFBE7260002002DE9F04FA0
:101F30000FF2A41CA1B0DCE90089CDE900892A9D3B
:101F4000DFF8DC9B049100248DF843500D944FF092
:101F5000FF38824616461F460FE0B3462C461BF854
:101F6000011B0498D0470028049000F0A2800D982F
:101F7000401C641E0D90F2D176193078252808D1C6
:101F8000002100220791089209910A920B910C926C
:101F90000DE06A464146304600F0F9FF050001D1E8
:101FA0000D98A1E0D9D50125E6E741F0010116F829
:101FB000010F2028F9D023280CD02B2804D02D285D
:101FC00005D0302809D076E041F00201EFE741F07A
:101FD0000401ECE741F00801E9E741F01001E6E710
:101FE0000F9209E00F98484505DA00EB800402EBF8
:101FF0004402303A0F92761C3278A2F130000A285F
:10200000F0D330782E2818BFCDF8388022D116F8BA
:10201000010F2A2807D138683860761C50F8042B45
:1020200038600E9216E02D280CBF761C002000228E
:102030000E920AE040B90E9A4A4505DA02EB820494
:1020400003EB4403303B0E93761C3378A3F130024C
:102050000A2AEFD3ADF8401021A0317800F0A8FF94
:1020600008B116F8010B8DF842009DF8420068286F
:1020700004D1307868280AD1622105E06C2804BFB9
:1020800030786C2803D171218DF84210761C12A88B
:1020900006903A4616F8013B02A9504600F064F853
:1020A00038B912AA02A9504600F0C8F900287FF5F5
:1020B00064AF404618E02A2892D13A683A6052F854
:1020C000040B3A6000280F9003D540420F9041F076
:1020D0000401761C95E700000000000000000000ED
:1020E000686A6C747A4C000021B0BDE8F08F6228F9
:1020F00020D0682811D06A2803D06C2827D07128F6
:1021000025D10868C01D20F007000860D0E9002331
:1021100008300860194610467047002A0A680A60AD
:10212000106803D0121D0A6000B217E0121D0A6089
:1021300080B217E0002A0A680A60106803D0121DF6
:102140000A6040B20AE0121D0A60C0B20AE0002A2A
:102150000A680A60106803D0121D0A60C117704730
:10216000121D0A60002170477CB50D4611461C46C1
:102170002E69B4F1250200F04F811C3A00F08480F2
:10218000121F022A40F280800E3A00F00981521F8D
:1021900059D0093A78D0921E16D0521E35D0521E10
:1021A000022A71D9121F30D0521F00F09880521E9F
:1021B00049D0521E00F0E280D21E00F0FF80921E35
:1021C00041D0D21E3FD02DE195F83A406C2C09D079
:1021D0006869421C6A610A680A6052F8043B0A6036
:1021E000335429E10A680A6052F8043B0A600093FC
:1021F000002201924FF0FF332B636A46294600F01C
:1022000098F9002840F1188103E195F83A0001227D
:10221000FFF76DFFC5E90001002904D56869411C7D
:1022200069612D220DE0288F810704D56869411C62
:1022300069612B2205E0C00721D56869411C6961ED
:10224000202232541BE095F83A000022FFF74FFF9E
:10225000C5E9000195F83800010710D5D5E900233C
:10226000002B08BF002A0AD044F02000782806D1AD
:10227000686930213154401C421C6A613454214643
:1022800068693044E86087E00868C01D20F00700F6
:102290000860D0E9002308300860C5E90023D5E9CB
:1022A0000001C80F04D06869411C69612D220DE04E
:1022B000288F810704D56869411C69612B2205E0DC
:1022C000C00704D56869411C6961202232546869DD
:1022D0003044E8602146284600F036FAACE005F1CB
:1022E0003A02507820B14FF0FF340FF6043074E01A
:1022F0001078622808D0682824D06A2812D06C2868
:102300002ED071280ED02BE00A680A6052F8040B18
:102310000A6020B94FF0FF340FF6EC205DE0E96A67
:10232000017089E00A680A6052F8040B0A6020B95B
:102330004FF0FF340FF6D0204FE0EA6AD317C0E920
:10234000002379E00A680A6052F8040B0A6020B999
:102350004FF0FF340FF6B0203FE0E96A01806BE0F8
:102360000A680A6052F8040B0A6020B94FF0FF3483
:102370000FF6942031E0E96A01605DE00A680A60C6
:1023800052F8040B0A60002120F0000221F0FF3314
:10239000C5E90023EE607821284600F02DF94BE0D6
:1023A0006C2285F83A200B680B6053F8042B0B6005
:1023B00052BB4FF0FF340FF684200EE095F83A2020
:1023C0006C2AF0D00868086050F8044B0860EC6094
:1023D0003CB94FF0FF340FF6482000F007FE201AFA
:1023E00076BD2E6B002E04D5204600F01FFE04465D
:1023F00008E032460021204600F022FE002814BFEB
:10240000041B3446AC6117E0294600F092F800281E
:1024100012D54FF0FF3076BD6869411C69612522F5
:10242000325409E06969481C686125227254210010
:1024300002D0431C6B613454002076BD2DE9F0417D
:102440000E4605469046726B7069316AB46A121A7C
:10245000B069521A716A121AF069521A121A96F871
:102460003800141B41070DD4002C0BDD2746B06843
:102470002021A8470028B06057D0F06A401C7F1E7A
:10248000F062F4D1736942463146284600F098FC68
:1024900000284AD1376A002F0ADDB0683021A847EA
:1024A0000028B06041D0F06A401C7F1EF062F4D179
:1024B000B369F2683146284600F082FCA8BB776A0F
:1024C000002F09DDB0683021A847B06068B3F06A1A
:1024D000401C7F1EF062F5D1F068B169F3694218C3
:1024E0003146284600F06CFCF8B9B76A002F09DDC8
:1024F000B0683021A847B060B8B1F06A401C7F1EB8
:10250000F062F5D196F8380041070BD5002C09DDB3
:10251000B0682021A847B06038B1F06A401C641E42
:10252000F062F5D10020BDE8F0814FF0FF30BDE84A
:10253000F0812DE9F8470D46A3B02F6B002F06461A
:10254000904648BF6FF000470FF60C1400F0A4FD52
:10255000D4E90023696B4018CDE90123812828BF05
:102560004FF0FF3042D20024002F33DDD8F80010A6
:1025700001AA684600F013FD8146B9F1000F38D476
:10258000D8F8000010B9B9F1010932D44F4521DB68
:102590006869484481280AD30021696303AA29464F
:1025A0003046FFF74BFF040014D40020686103ABF2
:1025B000D5F814A04A46694603EB0A00FFF7A0FCD1
:1025C000CA44C5F814A058F8040B002818BFA7EB9C
:1025D0000907C9D14CB903AA29463046FFF72EFF97
:1025E000044614B9002068616863204624B0BDE841
:1025F000F0874FF0FF34F8E72DE9FC4307466F29D9
:102600003E6908BF082405D041F02000782814BF97
:102610000A2410243C25D7E90023642918BF69291E
:102620009046994605D1002B03D5D8F1000869EBF7
:102630004909B9F1000F08BFB8F1000F1FD1386B7D
:10264000E8B9082C4CD197F83800010748D530205C
:102650003B2586F83B0043E000280ED597F838006C
:1026600000F01400102808D17B6B7969386A5B1A76
:102670001B1A9A1A002AC8BF3A62BDE8F3838DF884
:102680000010404649462246E31700F019FD30325B
:10269000D0B26D1E3A28019504DB9DF80000A0F130
:1026A00051018A187255404649462246E31700F008
:1026B00007FD80465FEA010908BFB8F1000F03D0AB
:1026C000F86871198842DCD3082C09D197F83800D2
:1026D000010705D5705D302802D06D1E3020705581
:1026E000C5F13C02BA617119F960386B8242B3DA04
:1026F000821A3A624FF6EF70398F01403987BDE890
:10270000F3832DE9D04306460F4614464FF00008E8
:10271000DFF8109412E0E00707D542464B463046FA
:10272000394600F0E5FD06460F464046494642461A
:102730004B4600F0DDFD641080468946002CEAD14E
:1027400030463946BDE8D0832DE9F84F05468A4624
:102750004AF020048EB0D5E90089612C02AE09D080
:10276000286B002848BF062003D408BF672C01D17E
:1027700001202863D5E900014A005215521C0DD1F1
:102780000B030BD0AAF1610103201A29A86102D220
:102790000FF2CC6110E00FF2CC610DE04A0052154F
:1027A000521C0ED10B030CD1AAF1610103201A298E
:1027B000A86116D30FF2B461E8680322FFF7A0FB0B
:1027C000C0E1CDE90C01DDE90C2323F00043B3F5B2
:1027D000801F0DD20027002B08BF002A019703D1CC
:1027E00011E00FF28461E7E701AA00F057FE0AE06A
:1027F000CD48CE4900EB1350DDE90C2301900B408E
:10280000CB4910461943C5E90001612C0DD1E86898
:1028100030210170821CBAF1610FEA600CBF78218F
:10282000582141706869801C6861D5E90001CDE9D3
:102830000C01DDE90C2333F0004104BF0028002324
:1028400000F04881612C40F0A080286B49460028A8
:102850004CBF4FF0210B00F1010B4046002200233A
:10286000DDE90C8900F052FE01990BF1010738BF38
:1028700089F00049091F002F01918DF808200DF102
:10288000090040F33581A949009106464046494672
:102890000022002300F052FE80F029814800400D04
:1028A00000F11C0211D0002A0FDD40F2FF739A42A2
:1028B00005DBA04909F000400143002011E0009B26
:1028C000194041EA025140460BE028F0000039F07F
:1028D000004108BF00280FBF49461C22494600F0AE
:1028E00045FE8046894600F0DFFEFF1F002F0446AC
:1028F00009DD00F0F7FE02460B464046494600F06F
:1029000003FF80468946F01D072104E004F00F0212
:1029100000F8012D2411002C01DD491EF6D5491EB9
:102920005CBF002200F8012DF9D5DCE0002019463B
:1029300002AA0A4400E05B1E12F80149491E8442C3
:10294000F9D00F2804D10DF10900425C521C425409
:10295000002904D50198001D02AE5B1C0190581E91
:102960000CD43118AAF13A040A783032D7B23A2F8F
:10297000A8BFA218401E01F80129F5D5286B002830
:1029800040F1A780591E2963A3E001996A4A47F2E2
:102990009750414391FBF2F2019229F00046D2F1A7
:1029A000070204DD40463146FFF7ABFE0AE0524223
:1029B00000206249FFF7A5FE02460B46404631461D
:1029C00000F014FF8046662C286B06BF019F0A3773
:1029D00006273F18142FC8BF142730208DF8080091
:1029E00089460DF1090000E03046002F34DD06462F
:1029F0004046494601F01EF801460A4606F1080322
:102A000004200A26B2FBF6F606EB860EA2EB4E0277
:102A1000303203F8012C0A22B6FBF2F202EB820EEE
:102A2000A6EB4E063036401E03F8026DE9D1083F92
:102A3000002F03F10806D7DD084601F00FF8024623
:102A40000B464046494600F05FFE00223C4B00F03A
:102A50004FFC80468946CBE70DF10901401A0DF184
:102A6000090604E00199491E401E0191761C317847
:102A70003029F7D0662C02D10199491C03E0652C5E
:102A80000CBF012100212B6BCB189842B8BF431E0D
:102A9000002B1ED4834204DAF05C3528A8BF39200D
:102AA00000DA30201946721E02EB010800E05B1EBE
:102AB00018F80199491E8145F9D0392802D1705C76
:102AC000401C7054002904D50198401C16465B1C1C
:102AD0000190019800B200901BB232465146284640
:102AE00000F034F82EE0C61D002F3FF7CFAE304681
:102AF0000DF10901401A03465845C8BF5B46002B3B
:102B00000DF109063FF53AAF8342BFF60FAF0DF165
:102B10000900C15C07297FF709AF0F2007E7000014
:102B2000CBCCCC0C0000244002FCFFFFFFFF0F8049
:102B30000000E03F0000F07FA08601000000F03FB1
:102B400084D797410FB0BDE8F08F00002DE9F8471A
:102B500083B006468A461746984600F022FAB8F136
:102B6000000F406A356B90F8009002DC4FF00108CE
:102B7000BFA74AF02000BDF93040662808BF641C9A
:102B800015D0672840F0848014F1040FC0F28680CD
:102B9000AC4280F2838096F83800641C010702D4AE
:102BA000A845B8BF454620B22D1A48BF00250FFAE8
:102BB00084FAF068B169BAF1000F25DC4A1C3023B1
:102BC0004354002D03DC96F83800010703D5F06864
:102BD00000F80290521C15EB0A0FB8BF6C4220B2ED
:102BE000441941424445B8BFA046B26171620FFA30
:102BF00088F5F561F068B3692A4639461844FFF74D
:102C00007FF9641BB462C4E022B29045084417DA2D
:102C100042463946FFF774F9B0694044B061AAEB07
:102C20000801002D716203DC96F838100A0705D5FB
:102C3000F16801F80090F069401CF061B562A8E00D
:102C40003946FFF75DF9B069002D5044A8EB040840
:102C500003DC96F838100A0703D5F16801F80090F4
:102C6000401CB0610FFA88F08542F368B069B8BFC4
:102C7000A8460FFA88F207EB0A011844FFF740F95B
:102C8000B1690FFA88F00144B161281A706280E0DE
:102C9000BAF1610F14D14FF0700A16E0A84504DABA
:102CA00096F838100A0758BF45466D1E48BF0025E4
:102CB000BAF1670F14BF4FF0450A4FF0650A04E000
:102CC000BAF1410F08BF4FF0500AB169F368481CD0
:102CD000B061002D17F8012B5A5403DC96F8381018
:102CE0000A071BD5F168431CB36101F80090002D61
:102CF00014DDA8F101080FFA88F039468542F7681B
:102D0000B8BFA8460FFA88F2F818FFF7F9F8B069CB
:102D10000FFA88F108446D1AB0617562F068B16904
:102D20000844002C80F800A003D42B224270811CA0
:102D300003E02D2141706442811C00206A460AE0B4
:102D400023460A2493FBF4F404EB8405A3EB450328
:102D500002F8013B401C24B2002CF1DC012806DC07
:102D60004AF02002652A04BF302201F8012B48B93D
:102D7000302001F8010B07E0401E1DF80030303311
:102D800001F8013B0028F7DCF268B0691044091A29
:102D9000F16196F8380000F0140010280DD1726926
:102DA000B169706A8A18F1698218B06A8A18821843
:102DB000706B8242BCBF821A326204B0BDE8F087F9
:102DC000F8B505460E4617461C46002074B117F8A4
:102DD000011BB068A847B06030B1F06A401CF062D7
:102DE0000020641EF3D1F2BD4FF0FF30F2BD0000B1
:102DF0007072696E74665F733A20256E2064697321
:102E0000616C6C6F776564007072696E74663A20ED
:102E100062616420256E20617267756D656E740055
:102E20007072696E74665F733A2062616420257304
:102E300020617267756D656E740000007072696E56
:102E400074665F733A2062616420256C732061723E
:102E500067756D656E7400000000000000000000E2
:102E60006E616E004E414E00696E6600494E46002E
:102E7000300030B4002513E050F8042BD30744BFD2
:102E8000A9F101039A18091F042942F8045BFAD238
:102E900013468C0744BF15809B1CC90748BF1D7093
:102EA00050F8041B0029E7D130BC7047613807E0B7
:102EB00005E0A0F161011A2901D2012070474138D3
:102EC0001A288041C00F7047A0F10901052901D3DC
:102ED000202801D10120704700207047A0F1410156
:102EE0001A2938BF203070472F48704770B4536894
:102EF000D418042B09DA41B1057804F8015B10F805
:102F0000016B16B15B1C491EF3E7536070BC704740
:102F100038B514461D4661B1FFF7E8FF61686A6B7A
:102F2000204690476FF00102811A02D0491E01D05D
:102F300001E024E026E00021616032BD38B504469E
:102F4000084611001D4615D02A46FFF7CFFF6968D5
:102F5000049B1CB95A6B2846904704E00A469B6BB9
:102F60002946204698476FF00102811A02D0491E77
:102F700001D001E003E005E00021696032BD6FF09F
:102F8000010032BD4FF0FF3032BDDA6B1047064B07
:102F9000BEE71CB5044C0094FFF7D0FF16BD024BF2
:102FA000F3E70248704700008822002050220020EA
:102FB000C9B202788A421AB11CBF10F8012FF9E792
:102FC00018BF00207047B1F5807F02D34FF0FF306B
:102FD00070470170012070470A780260087800E0AD
:102FE0000078401E8041C043C00F704780B500B9D3
:102FF00006A005490B681BB122220021984701E079
:10300000FEF728FF222002BD70910020636F6E73CF
:10301000747261696E742068616E646C65723A20C6
:10302000626164206D6573736167650000F101037F
:1030300010F8011B11B110F8011BFBE7C01A704713
:10304000C9B2830706D0521E22D310F8013B994221
:10305000F7D11FE0083A13D302F1040241EA01213B
:1030600041EA014150F8043B121F21BF4B40A3F13C
:10307000013C2CEA030C1CF0803FF3D0C9B2001FC6
:10308000083210F8013B521E28BF91EA030FF8D80E
:1030900018BF0120401E704780B5FFF725FF006C68
:1030A00002BD03681AB95A1E0260084670471978B3
:1030B00011B94FF0FF307047591C01601878704704
:1030C000BBBBE1B1B2F5803F80F07E80022A1ED901
:1030D0008C46B1FBF2F102FB11C31B0443EA10431F
:1030E000B3FBF2FC02FB1C3380B240EA0343B3FBA8
:1030F000F2F002FB103240EA0C4000237047022A33
:1031000005D98446B0FBF2F002FB10C270474AB109
:1031100005D100F0010249085FEA30007047002243
:103120000023704700F0A8BC0B0002000021002023
:103130007047904271EB030CF6D3B3F5803F2FD26A
:10314000F0B5B3FA83F7B1FA81F4A7F10F0E3D1B86
:103150005340CEF1200602FA0EF2F3415340B5F18E
:103160000F0746D80F3C2C444140C4F12006A04034
:10317000F1414140B1FBF3F603FB1611A2FB0645FA
:10318000001BA94102D2761E8018594180EA010233
:1031900021FA0EF362FA0EF200215A403046F0BDD9
:1031A00030B4B1FBF3FC03FB1C11A2FB0C45001B6C
:1031B000A94103D2ACF1010C8018594130BC024640
:1031C0000B46604600217047B2F1807F65D3F0B5B1
:1031D000B2FA82F7B1FA81F4C7F10F063D1B22FA69
:1031E00006F307F1110EF24120355A40B5F10F07F1
:1031F000B8D94140C4F12006A040F1414140B1FBA3
:10320000F3FC03FB1C11A2FB0C45001BA94103D2DC
:10321000BCF1010C801859410F2F12D30F3FC90385
:1032200041EA5041B1FBF3F603FB1611A2FB064540
:10323000D4EBC030A94102D2761E8018594146EA2B
:10324000CC3C07B34140C7F12006B840F1414140B2
:10325000B1FBF3F603FB1611A2FB0645001BA941C7
:1032600002D2761E8018594180EA010221FA0EF33B
:10327000C7F1200462FA0EF20CFA07F05A402CFA59
:1032800004F13043F0BD80EA010221FA0EF300217F
:1032900062FA0EF260465A40F0BD8C46B1FBF2F184
:1032A00002FB11C31B0243EA1063B3FBF2FC02FBF7
:1032B0001C331B024CEA002043EA1063B3FBF2FC10
:1032C00002FB1C331B024CEA002043EA1063B3FBF1
:1032D000F2FC02FB1C331B024CEA002043EA1063A1
:1032E000B3FBF2FC02FB1C324CEA002000237047C7
:1032F000B0B581EA030C0CF0004C40F2FF7515EA02
:1033000011541DBF15EA1357AC42AF4239E0E4191E
:1033100023EA455343F48013C90241F0004141EAD6
:10332000505EC7021100A7FB020200284FF0000008
:10333000EEFB01204FF00001E3FB072118BF42F034
:103340000102401800214941E3FB0E01A4F580640D
:103350000F0302D252004041494154F101046CDD97
:10336000470872F1004250F1000051EB0451A1F501
:1033700080115CBF41EA0C01B0BD4CEA0551002050
:10338000B0BD05EA1357AC4214BFAF4241E050EA6A
:10339000410E1CBF52EA430E02E061460020B0BD60
:1033A00024423C441BD15FEA070EF6D0090302BF5A
:1033B00001460020AEF1140EB1FA81F7AEEB07041E
:1033C00001FA07FE0C37C7F1200100FA07F7C840E1
:1033D0004EEA000E23EA455343F48013A2E733F08C
:1033E0000043B3FA83F704BFB2FA82FE77440B3F7F
:1033F000E41BB7F1200E2FBF02FA0EF3BB40C7F15A
:10340000200E22FA0EFE38BF43EA0E03BA40641CB7
:1034100082E750EA410E14BF52EA430E6FF00001FA
:103420004FF4001717EB430F8ABF194617EB410FF4
:10343000B5E74CEA05510020B0BDD4F10104B4F168
:1034400020070FDAC4F12007520828BF42F001021A
:1034500010FA07F501FA07F7E1BF2A43E0403843C5
:10346000E1400FE0352C98DCC7F1200452EA40021D
:1034700020FA07F218BF42F0010231FA07F0A1402A
:103480000A43002172F1004250F1000051EB0C019F
:10349000B0BD0268531C03601170704710B514462C
:1034A00000F002F8226010BDC1F30A5343B14A0094
:1034B00012F5001F28D2A3F2FE32A1EB0251704791
:1034C00050EA410C20D001F0004C31EA0C01B1FA75
:1034D00081F204BFB0FA80F3D2180B3AB2F12003A4
:1034E0002CBF00FA03F1914041EA0C013EBFC2F14A
:1034F000200C20FA0CF319439040524240F2FD3365
:10350000D21A01EB03517047002270474FF4001CA0
:103510001CEB410F94BF1CEB430F09E041EA030C85
:1035200050EA4C0C52EA0C0C03D2994208BF90426C
:10353000704714BF8B428242704700004FF4001C5A
:103540001CEB410F94BF1CEB430F09E041EA030C55
:1035500050EA4C0C52EA0C0C03D28B4208BF824258
:10356000704714BF9942904270470000124254D4F1
:1035700040F2FF7C1CEA11530FD0634531D09B18F9
:1035800063453CBF01EB0251704701F0004141EA45
:103590000C510020AFF30080704750EA410320D067
:1035A00001F0004C91EA0C011CD0B1FA81F30B3B05
:1035B0009A420DD9D21A994051EA0C01C3F1200C5C
:1035C00020FA0CFC61449840531C40F2FF7CD7E782
:1035D000914041EA0C01C2F1200C20FA0CF319438E
:1035E00090407047B0FA80F31533202BE0D3202AA7
:1035F000EED3203A203B9A4209D9D21A00FA03F1BD
:1036000041EA0C010020531C40F2FF7CB8E700FAAD
:1036100002F141EA0C0100207047524240F2FF7C67
:103620001CEA11530DD06345DBD0B2EB030C3CBF59
:10363000A1EB025170470CF1010221EA035141F460
:10364000801150EA410CCCD001F0004C352A27DC27
:1036500030B481EA0C01B2F1200309DAC2F120038F
:10366000044601FA03F5D0402843D1409C400CE0C9
:10367000C3F12002450020FA03F418BF44F001040E
:1036800021FA03F091400C43002174F1004550F100
:10369000000051EB0C01244230BC7FF47BAF70473B
:1036A0006146002076E70000C1F30A5340F2FE3283
:1036B0009B1A14DDD3F120034FEAE17208DDC90241
:1036C00041EA505141F00040D840801850407047C6
:1036D00003F2E13010B1D24382F000407047002085
:1036E00070470000C11768B14840401AB0FA80F234
:1036F0009040D21CC907C2F5846241EA025202EB33
:10370000D02140057047000070B44FF0004591EAA9
:10371000030F40F1BB816B40841A71EB030603D2A7
:10372000001BB141121973414FF4001C1CEB410FF7
:1037300034BF7CEB430442E00C0DA4EB1356352E52
:103740004FDC45EAC323DB0A45EAC121C912B6F1C1
:1037500020050DDD63FA05F6EB4086EA030512420B
:1037600018BF45F00105C01851F100010CD213E05B
:1037700062FA06F5F2405540F3415A40B340F34037
:103780005A408018594107D349085FEA30005FEA80
:10379000350528BF45F0010501F58011420875F196
:1037A000004250F1000041EB04514E0016F5001F9D
:1037B00070BC38BF70470020090D090570471CEB2D
:1037C000410F10D252EA43060BD0BCEB410F05D893
:1037D0000C0DAB43661E342EB6DD02E0AB43801801
:1037E000594170BC704770BC70470000F0B540F2A2
:1037F000FF7581EA030C0CF0004C15EA11541DBF53
:1038000015EA1357AC42AF42E5E0BC41C1F31301E6
:10381000C3F31303801A994143F4801304D2641E46
:103820004000494180185941C90241EA5051B1FB59
:10383000F3F603FB1611A2FB0675D7EBC020A941D6
:1038400002D2761E80185941C90241EA5051B1FB9B
:10385000F3FE03FB1E11A2FB0E75D7EBC020A9419E
:1038600003D2AEF1010E80185941890241EA90510C
:10387000760546EA8E2EB1FBF3F603FB1611A2FB8A
:103880000675D7EB8020A94102D2761E80185941D7
:10389000C90241EA50514EEA060EB1FBF3F603FBB2
:1038A0001611A2FB0675D7EBC020A94102D2761EE5
:1038B00080185941C90241EA5051B1FBF3F703FBAB
:1038C0001711A2FB0735D3EBC020A94167F1000710
:1038D0000CBF004247F0010766F3D5274FEA1E31BF
:1038E000B80814F5806412DDBD0775F1004250EB95
:1038F0000E5051EB045111F5801F5CBF41EA0C01E1
:10390000F0BD4CF07F6141F0E0410020F0BDBD070B
:103910006D0840EA0E5041F48011D4F10104B4F175
:1039200020060ADAC4F120060200E04001FA06F39C
:10393000E1401843B24015430EE0342C13DCC6F1CD
:10394000200445EA40056D0820FA06F2154321FAE5
:1039500006F0A1400D43002175F1004250F1000036
:1039600051EB0C01F0BD00205FEA0C01F0BDCFB9B6
:1039700092185B41B3FA83F704BFB2FA82F6BF191B
:103980000B3FB7F120062FBF02FA06F3BB40C7F189
:10399000200622FA06F638BF3343BA401CB1E419B8
:1039A000641E33E77F4231F00041B1FA81F404BF75
:1039B000B0FA80F6A4190B3CB4F120062FBF00FA30
:1039C00006F1A140C4F1200620FA06F638BF3143C3
:1039D000A0403C1B1AE7AC421ABF05EA1357AF429E
:1039E00012E050EA41061CBF52EA4306BFE750EA24
:1039F0004107304661461CBF41EA0551F0BD52EA1D
:103A0000430C08BFC143F0BD00204FF4001616EB75
:103A1000410F98BF16EB430F08BF16EB410F24BFB1
:103A2000C14305E016EB430F0CBF61464CEA05515C
:103A3000F0BD0000400D491840EA81200CD2490D2C
:103A4000A1F58061491C40F0004005DBD1F11F0168
:103A500054BFC840C017704700207047014648B1A6
:103A6000B0FA80F18840C91CC1F58461090501EBF9
:103A7000D0214005704700007047000070B44FF03F
:103A8000004591EA030F7FF547AE6B40841A71EB56
:103A9000030604D26E40001BB141121973414FF46A
:103AA000001C1CEB410F34BF7CEB430683E00C0D84
:103AB000A4EB1356362E00F37C80012E45EAC32377
:103AC00041DC43EA525312BFD20292025B08240542
:103AD00045EAC12141EA5051D2EBC020994125D499
:103AE00007D1B0FA80F610FA06F162D00020203635
:103AF00008E0B1FA81F6B140C6F1200220FA02F2E4
:103B00001143B0404FEAF474B4EB465434F001066C
:103B10004FEA74040AD8D6F50016760D04F0004476
:103B2000F04061FA06F25040F1404840C00A40EAD5
:103B3000415021F0004128BF5FEA500550F10000DC
:103B400044EBD12135E0DB0A45EAC121C90AB6F1CF
:103B500020050EDD42EA0242120CC5F1200603FAEE
:103B600006F6EB4042EA06056D42984161F100011C
:103B70000DE062FA06F5F240554063FA06FC82EA6F
:103B80000C02F3405A406D42904161EB030111F485
:103B9000801F05D1641E620502D06D00404149417D
:103BA00021F48011430875F1004350F1000041EB0E
:103BB000045170BC70471CEB410F15D223F0004339
:103BC00052EA43060BD04FEA4C0CBCEB410F04D831
:103BD0000C0D661E342EB7DDEBE7801A994150EAD2
:103BE000410608BF0021E4E708BF1CEB430F28BFD4
:103BF0006FF00001DDE70000DFF85408C1680069DC
:103C00000844704770B505000C460ED0FFF70EFA59
:103C1000461C216830468847040001D1002070BD51
:103C200032462946FEF76CF9204670BD10B50146B4
:103C300028200968884704001CBF282100F04EFF97
:103C4000204610BD70B50500DFF804681DE0E86887
:103C50002C68C10503D4A86808B1FFF7F3FFE86832
:103C6000C10505D4286918B171688847002028610A
:103C7000E868810505D4286A18B171688847002072
:103C800028622846716888472500E0D170BDF0B5EC
:103C900091B0054600200090002200291CBF086852
:103CA000002828D00C4601A9A06866681318B34202
:103CB00017D223681844805CB0F12B070AD0BF1ECE
:103CC00008D07F1E08D0BF1E092F03D9153F01D091
:103CD000203F06D1885401E02E268E54521C3F2AE4
:103CE000E2D300238B54694601A801F0FDF8009B44
:103CF00001AA9A4201D1002018E0C5E9060100F0AE
:103D00001DF898BF6FF0004006D900F011F834BFDD
:103D10004FF00040FFF7C8FC68610820E860A26827
:103D200000998A1801A8121AA260012011B0F0BDF2
:103D30004FF0FF32DFF81C37FFF7E8BBDFF818273A
:103D4000DFF81837FFF7FABB70B505001CBF28680D
:103D500000280E462BD0696811B1AA688A4226D283
:103D60006FF000439E4222D8AC68621C9619B142A3
:103D700001D3204470BD2969C9B9B6F1804F03D37E
:103D80009E4214D81E4600E076002A6A22B13146CF
:103D90009047040015D104E0A96930468847040023
:103DA00007D12868E96988470020686028600020FA
:103DB00070BDAA682968521CFEF7A2F82868E96954
:103DC00088476E602C60A868204470BD38B5040038
:103DD0001CBF2068002805D0A5682844FFF726F9F5
:103DE0004519A56031BD2DE9F84304460D46164638
:103DF0001F46304627F00041224625F00043FFF7DA
:103E000085FB39BFA04625F00049B04627F00049A0
:103E10002046294632463B46FFF776FC21F0004516
:103E200004460020DFF8381642464B46FFF760FA9A
:103E300022462B46FFF782FB94BF01200020BDE8FD
:103E4000F28300002DE9F045074689B0D7E90685E1
:103E50000E4602A81C21002401F04AF8A246CDE932
:103E600000A4002E45D068004015401C01D1290354
:103E700004D14046294601F03EF828B10FF24C71BA
:103E800002A801F049F82DE07F693846FFF72AFCC7
:103E900002460B464046294601F05EF805D13A46F7
:103EA00065A102A801F038F81CE042464FEA05037C
:103EB00018A102A801F030F807466A465FA102A8DF
:103EC00001F05AF8012806D1DDE9000142462B46EF
:103ED000FFF789FF38B942464FEA05030FA102A850
:103EE00001F01AF807461A2F03D2791C00F006FCDD
:103EF00028B900200BE002A9095D0155641CBC42F1
:103F0000F9D300F804A0B0683F18B760012009B0E9
:103F1000BDE8F08525312E313567000025312E3181
:103F20003767000010B50146002000228B5CA3F12A
:103F300030040A2C38BF303B0AD3A3F14104062CCD
:103F400038BF373B04D3A3F16104062C08D2573B9A
:103F50001818032A38BF0001521C032AE6D910BDE5
:103F6000002010BD2DE9F04704460F460026391BFE
:103F7000062915465DDBA01CFFF7D4FF814640F201
:103F8000FF38A9F55C40404553D9A9F55841414552
:103F90001DD8A01D3F1A062F4FF00C0A49DBA0794F
:103FA0005C2804BFE079752843D104F10800FFF7CD
:103FB000B9FFA0F55C4141453BD8DFF87C2A02EA15
:103FC0008922C0F30900104300F5803002E04FF071
:103FD000060A4846802838BF012110D3B0F5006F8B
:103FE00002D20221C0260AE0B0F5803F02D20321AE
:103FF000E02604E0B0F5881F1BD20421F0264A1EFB
:1040000007E000F0BF04D7B244F08004DC5580091B
:10401000521ED4B22B68002CF3D10229A7BF06434D
:104020001E7000F07F001870286808442860504611
:1040300000E00020BDE8F08725640000256C6700E3
:104040002DE9F8450C4600232268A16800938046BC
:10405000565C501C4718222E3D466ED1D4F804C041
:10406000002008E05C2B05D17B1C9E1A664564D2BB
:10407000401C7F1C7F1CBB1A63455ED23B78222B01
:10408000F0D15AD11144791A081A2169401C884785
:10409000060052D00096AA4606E000991AF8010BD5
:1040A00008700098421C0092BA4534D29AF8000079
:1040B0005C28F2D10220A7EB0A01002939DD9AF829
:1040C000011022291CBF2F295C2915D062290AD092
:1040D00066290AD06E290AD072290AD074290AD01A
:1040E00075290FD025E0082106E00C2104E00A2103
:1040F00002E00D2100E00921009A117000994B1C8B
:10410000009306E06A4639465046FFF72BFF010050
:104110000FD08244C8E70099002008701022C8F828
:104120000C20C8F810602068381A401CA0600120DC
:1041300008E0616930468847554615B120682D1A58
:10414000A5600020BDE8F2852DE9F84304460A0089
:104150004FF0000908BF00207CD054B9032110465D
:10416000FFF7F2FD002875D00322B7A1FDF7C8FEC6
:104170006FE02746387800285BD0A0F108010229BB
:1041800084BF091F012908D9163906D03A3904D04D
:10419000202804DA09F1050901E009F101097F1C71
:1041A000E8E7B9F1000F06EB07080AD122203070CA
:1041B0003A462146701CFDF7A3FE701C2221C15512
:1041C00044E022203070751C0FF28C0909E049464A
:1041D000284600F0A1FE2D1D01E074202870641C0B
:1041E0006D1C207800282ED0202803DB222818BF41
:1041F0005C28F3D15C2005F8010B2278082A0FD047
:10420000092AEAD00A2A10D00C2A0CD00D2A0ED086
:10421000222A03D05C2ADAD12A70E0E72220DDE7E7
:1042200062212970DBE76620D8E76E21F9E772206A
:10423000D4E73F1B4F44F91C1046FFF785FD0600ED
:10424000AFD1002006E0711C2220C855002288F85A
:1042500002200120BDE8F28375253034780000008B
:1042600010B500281CBF0168002901D1002010BD35
:1042700042688368934205D310BDCC5C212C07DAD9
:104280005B1C836083689342F7D304BF5B1E83602B
:1042900010BD70B504000D46164608D0FEF7C6FEE8
:1042A000411C33462A462046BDE8704000E070BD00
:1042B0002DE9F04387B005460F4614461E46684672
:1042C0001C2100F015FEDFF888814FF00009002D59
:1042D000C8F80C90C8F8109051D06FB3019704A99A
:1042E00098E88C0081E88C000095CDF80890404655
:1042F000FFF79CFC07001FD0009870B1029860B9CE
:104300000198052807D30098032250A100F048FE29
:1043100008B903200290684600E00020FFF7A0FFE4
:104320000146384600F09EF868B900BF16A000F0BC
:104330004BFE3846FFF786FC0198029A0021824224
:1043400014D2114614E056B16846FFF789FF02986F
:1043500001998842EDD2009A105C0028E9D11CB185
:104360000098029901442160384609E000B1411EDD
:104370000CB168182060C8F80C50C8F81010002064
:1043800007B0BDE8F08300006572726F72330D0AEA
:1043900000000000002200217BE7F0B589B006464E
:1043A0000F4615462421684600F0A2FD29684FF407
:1043B00080708847009006A94FF48070019005979F
:1043C000002495E80C4081E80C400098002833D088
:1043D0006946304600F0AAF820B36846FFF7F6FCBD
:1043E0000298AA68401C2AB1014600989047040030
:1043F00018D013E029688847040013D0029A019866
:104400000099521C904238BF02462046FDF778FDC5
:104410000299002060546968009888470020009045
:1044200020460AE0009818B169688847002000908B
:1044300014B1204669688847002009B0F0BD044ADD
:104440000121AAE70000000022220000EFBBBF000C
:1044500060000020FFFFDFC10000C0FFFFFFDF4161
:104460000000B03C2DE9F8430C001CBF2568002D6E
:10447000064657D0A768D4F8049007F10408C14550
:104480000BD3042251A1E81900F08AFD28B90420B9
:10449000F0600120A168091D0DE0781D81450CD355
:1044A0005FF005024BA1E81900F07AFD28B9012060
:1044B000F060A168491DA16035E0C1450ED304221A
:1044C00046A1E81900F06CFD40B90220F06001211E
:1044D0007161A068001DA060012024E04F4521D239
:1044E000E85D222804D121463046BDE8F443A7E523
:1044F0002D2803D0A0F130010A2905D221463046EB
:10450000BDE8F443FFF7C3BB5B2804D12146304626
:10451000BDE8F44366E07B2804D121463046BDE87F
:10452000F443EEE00020BDE8F283000070B5040023
:104530000D4618BF002D47D0E068C0B2012815D045
:1045400002281BD004280AD008281DD010282FD0FC
:10455000202831D0402833D080281AD034E000F011
:10456000DCF9002831D0052218A11DE0062100F059
:10457000D5F950B35FF0060216A115E000F0CDF9B1
:1045800018B3052215A10FE02046BDE87040FFF7E3
:1045900059BC2069C8B1FEF749FD461C314600F000
:1045A000BDF990B121693246FDF7AAFC012070BD2A
:1045B0002069BDE87040C7E52046BDE8704055E081
:1045C0002046BDE870401AE1002070BD6E756C6C2D
:1045D0000000000066616C73650000007472756510
:1045E00000000000F8B500F0FBF83DD2401CE86088
:1045F0002968A8680A5C5B2A36D100F0E7F8A86849
:104600003DB36968884224D22A68135C5D2B1CD0B4
:10461000401EA86005F11000FFF708FB00B3DCB9ED
:1046200004462746A86800F0D1F829463846FFF727
:1046300019FFA8B100F0CCF800F0C4F810D22A6835
:10464000105C2C28E6D05D280AD100F0C3F82020A9
:10465000CEE0401EA86007E0386047600746E1E70B
:1046600014B12046FFF7EEFA0020F2BD70B50E003F
:10467000846801D1002070BD012100F03FF80028BE
:1046800035D05B210170B068401CB060F068401C00
:10469000F0600DE02C2200F8012B716911B120228D
:1046A00000F8012B00210170B0682D18B560246856
:1046B000F4B131462046FFF739FFC0B13046FFF76D
:1046C00085FB20680028F2D07069002814BF0225FD
:1046D0000125691C00F012F80028DBD170BD5D21B6
:1046E000017000224270F068401EF060012070BD31
:1046F000022100F003F80028F1D170BD3046FFF729
:1047000023BBF8B500F06CF85AD2401C002DE860CD
:1047100056D000F057F853D22A68135C7B2B4FD148
:1047200000F054F800F04EF83FD22A68135C7D2B5D
:1047300037D0401EA86005F11000FFF777FA002877
:104740003AD0002C34D104462746A8686968401C3A
:10475000884231D200F03BF829463846FFF770FC1A
:10476000002829D000F034F8386938620021396116
:1047700000F028F820D22A68135C3A2B1CD100F0F4
:1047800025F829463846FFF76DFEA8B100F020F85D
:1047900000F018F810D22A68105C2C28CBD07D28A5
:1047A0000AD100F017F8402022E0401EA86007E080
:1047B000386047600746C8E714B12046FFF742FA61
:1047C0000020F2BDA868696888427047401CA86054
:1047D000284645E5E868401EE86004B16760704718
:1047E0000D460646E86800240027B0F57A7F70473A
:1047F000F060B460A868401CA8600120F2BD70B5EC
:104800000D00846872D06869002814BF0226012652
:10481000711C00F083F8002868D07B210170EA68E1
:104820006969521CEA6009B10A224270A868361808
:10483000AE6031E0314600F071F8002856D03A22DF
:104840000270696909B1092242702946A8683618C0
:10485000AE602046FFF76AFE002847D02846FFF7E3
:10486000B5FA6E6906B10126206800B1761C711C8C
:1048700000F054F8002839D0216811B12C2200F83A
:10488000012B696911B10A2200F8012B0021017086
:10489000A8683618AE6024686869002C1ED078B10C
:1048A000E96800F03BF808B3002103E0092200F8B2
:1048B000012B491CEA689142F8D3A8681218AA6033
:1048C0002946206AFFF740FC80B12846FFF77EFAB0
:1048D0006869002814BF02260126ABE700281ABF2A
:1048E000E968491C022100F019F808B9002070BDE0
:1048F000696949B1002103E0092200F8012B491C34
:10490000EA68521E9142F7D37D2101700022427065
:10491000E868401EE860012070BD05212846FFF7C9
:1049200013BA2DE9F0410F46002818BF002F2CD0F4
:1049300084684AB14CB3216A29B3384600F058FB69
:1049400008B32468F6E72468FCB1266A3D0018BF66
:10495000002EF8D0B54204D115E015F8010B90B146
:10496000761C287800F04DFB8046307800F049FB3B
:104970008045F2D0287800F044FB0546307800F0FE
:1049800040FB2D1ADFD1206A08B9002000E0204644
:10499000BDE8F0810022C4E700291CBF002888423E
:1049A00001D100207047826822B9816049600020EF
:1049B000086005E052681AB111604A608068416081
:1049C000012070472DE9F04105000C4618BF002C6E
:1049D000164698460FD0002E18BFB5420BD0069849
:1049E00018B1F76847F400770AE041462046FFF720
:1049F00009F9040001D1002011E0F76827F40077DD
:104A0000F068810504D4306A10B1D8F804108847E2
:104A10003462F76031462846BDE8F041BCE7BDE8A6
:104A2000F08180B50023FFE70093DFF8A430FFF7A3
:104A3000C9FF02BD0000000000FC0F000646002078
:104A400000903246DFF8883029462046FFF7BAFF4B
:104A50000028304602D1FFF7F5F8002076BD7CB57E
:104A600000F004F8194600F005F8E7E704460D46A3
:104A70001046704770B504460D4600F01DF806005C
:104A800018D0204608242946F460DFF84820DFF8D3
:104A90004830C6E90601FEF751FD03D86FF0004427
:104AA000746107E0FFF744F934BF4FF00040FEF7B0
:104AB000FBFD7061304670BDDFF81400FFF7B6B83B
:104AC00080B5FFF7F9FF08B14021C16002BD0000C9
:104AD000600000200000C0FFFFFFDF41002200F067
:104AE0009BBA00007CB51D4621F000431446B3F587
:104AF000801F20F0000209D20026002B08BF002AE8
:104B000000960ED06A46FEF7C9FC0AE0DFF8A463FF
:104B100006EB13520092DFF8A033DFF8A023114018
:104B2000194322462B46FEF7E3FB0B465A00009C36
:104B3000520DA4183AB1002C05DD40F2FF729442E8
:104B400000DB4AE044E020F0000231F000430EBFF9
:104B5000002A009AFEF70AFD7CBD7CB51D4621F0B7
:104B600000431446B3F5801F20F0000209D200264E
:104B7000002B08BF002A00960ED06A46FEF78EFC76
:104B80000AE0DFF8306306EB13520092DFF82833B7
:104B9000DFF828231140194322462B46FEF726FE54
:104BA0000B465A00009C520DA4183AB1002C05DDAA
:104BB00040F2FF72944200DB0FE009E020F00002B7
:104BC00031F000430EBF002A009AFEF7CFFC7CBDF7
:104BD0006FF31E5343EA04517CBDB94B01F0004012
:104BE00040EA030100207CBD2DE9F84C002A8246F2
:104BF0008B461F4600F0AE802AF000043BF00045D3
:104C000008BF002C00F0A68048004015401C02D1CF
:104C1000090300F09F800020002AAA4914D55242BF
:104C20004E4E7E4406F59B7608251446002C18BF90
:104C3000002D4CD0E20744BFD6E90023FEF758FB15
:104C4000640808366D1EF1E76EDD444E7E4406F5BD
:104C5000867608241546EA0744BFD6E90023FEF706
:104C600047FB6D100836641E002D01DD002CF2D1CB
:104C700002460B4650465946FFF734FF82468B46A4
:104C80002AF000023BF0004308BF002A2C464BD01C
:104C900048004015401C01D1090345D0002C43DDDC
:104CA00050465946884A894BFFF71CFF20F0000206
:104CB00031F0004308BF002A34D04A005215521C7C
:104CC00001D10B032ED0641E002CEBDC2AE002463F
:104CD0000B4650465946FFF740FF82468B462AF066
:104CE00000023BF0004308BF002A1DD048004015D9
:104CF000401C01D1090317D0B4B150465946744A3B
:104D0000744BFFF7EFFE20F0000231F0004308BFC4
:104D1000002A07D04A005215521C01D10B0301D0C2
:104D2000641EECD182468B462AF000023BF0004321
:104D300008BF002A07D04FEA4B004015401C08BFAF
:104D40005FEA0B3106D1AFF300801FB1386840F045
:104D50000100386050465946BDE8F48C9C93000031
:104D60002DE9F94987B01F001CBF00203860079E5D
:104D70000C46154607A800F058F9C21020F00800AC
:104D800002F001020128059204952FD10220009023
:104D900001AB07992246304600F0D8F9040002D151
:104DA000002000211DE00298FEF79CFC022C18DB7D
:104DB0000DF10C08661EDFF820B102460B460020FC
:104DC0005946FEF795FA044658F8040B0D46FEF7CF
:104DD00089FC22462B46FEF751FE761E02460B4604
:104DE000EDD1049A019C3B46A2184BE002284CD11D
:104DF000009001AB07992246304600F089FA040082
:104E000002D10020002119E00298FEF76BFC022C71
:104E100014DB0DF10C08661EDFF8C0B000225B4603
:104E2000FEF766FA044658F8040B0D46FEF75AFCE6
:104E300022462B46FEF722FE761EEFD1019B0C4642
:104E40006200520D03EB020511D0002D0FDD40F280
:104E5000FF72954206DB1A4B01F0004040EA030165
:104E600000200DE06FF31E5444EA055108E020F0E5
:104E7000000431F000450EBF002C1A46FEF776FB09
:104E8000049A3B46FFF7B0FE0CE0032802D1002055
:104E90000B4907E0042807BF4FF0FF306FF00041D7
:104EA00000200021059A0AB181F0004109B0BDE857
:104EB000F089000002FCFFFF0000E03FFFFF0F80D1
:104EC0000000F07F0000F03F3CBF737FDD4F1575A1
:104ED000436FAC642806C80A65CDCD410000B041DF
:104EE0000023002200213BE70023002238E70000D6
:104EF000002200F01FBB4A005215521C01D10B03C7
:104F000008D148004015401C04D10903481E8041C7
:104F1000C00F7047002070470CB430B583B00A460C
:104F200006A90291044600250194009502AB01A94F
:104F3000084878441E30FCF7F9FF019A15700028E4
:104F40004EBF04460198041B204603B030BC5DF8F8
:104F50000CFB00BF3FE5FFFF90420CD141EA030C80
:104F600050EA4C0C07D0994205D14FF4001C1CEBC1
:104F7000410F38BF894270470DB4C0B50A4604A836
:104F800000210190009101AB03A9044878440C3042
:104F900000F008FB06BC5DF810FB00BF07E1FFFF57
:104FA00004E010F8013B6BB1491C521E52B10B7862
:104FB00090F800C09C45F4D002D24FF0FF3070470B
:104FC00001207047002070470EB4C0B5024603A808
:104FD00000210190009101AB0121044878440C307C
:104FE000FCF7A4FF06BC5DF810FB00BFF7910000C2
:104FF00010F8012B11F8013B0AB19A42F8D0D01AEF
:10500000704710B50446FDF76FFF01462046896AD8
:10501000BDE81040084700004018491C1CBFB1F112
:10502000010100F8012DF9D170472DE9F84305463B
:105030000C462E68002700E0761C307801F0C0F99D
:105040000028F9D130782D280CBF08272B2800D153
:10505000761C307840F020016E2927D1707840F01E
:105060002000612802BFB07840F020006E2802D0F6
:105070002E68002746E0F61CB046042798F800008A
:1050800028283FD118F8019F484601F0A3F90028CD
:10509000F8D1A9F130000A28F4D398F800005F286D
:1050A000F0D029282ED108F101062BE069292CD156
:1050B000707840F020006E2802BFB07840F02000E9
:1050C000662802D02E6800271CE016F8030F40F077
:1050D0002000692802BF707840F020006E2847F059
:1050E00003070FD1B07840F02000692802BFF078A4
:1050F00040F02000742805D1307940F02000792854
:1051000008BF761DF4B126601CE0302802BF70781D
:1051100040F02000782813D1B01C01782E2908BF58
:10512000401C0078A0F16101062921BFA0F14102D5
:10513000062A30380A2803D2B61C47F0020701E0DD
:1051400047F001072E603846BDE8F2832DE9F14FA4
:105150008CB09246169A02EBC20200202D2AC8BFDC
:105160002D22186083465860002501E0491C012566
:105170000C78302CFAD000241F460B78A3F13006AF
:105180000A2E80F09780944207DB3B685B1C3B60F3
:105190000B78302B05D0012003E0303B0DF80430B4
:1051A000641C491C0125E8E73868401E3860761CFD
:1051B000012530783028F7D03078A0F130010A2965
:1051C00080F08780444507DA30380DF80400641C0D
:1051D0003A68521E3A6003E0302818BF4FF00109C8
:1051E000761C0125E8E70DF1FF32115D49B93A68F7
:1051F000521C3A60641E002CF5DC04BF8DF800B030
:10520000012400284BD0092394FBF3F3C4F10901D6
:1052100003EBC3035918092291FBF2F202EBC2021D
:10522000DC468A1A18BF4FF0010B5A468B46A4453C
:105230005BDA09219BFBF1F11DF80C3001EBC10198
:10524000BBEB01011DBF57F8221001EB810103EBFD
:105250004103521C47F822300BF1010B0CF1010CF9
:10526000E5E700240025DFF8A4C0314608E06545E5
:1052700004DA05EB850402EB4405303D491C0124AA
:105280000A78A2F130060A2EF1D30E46BEF12D0F98
:10529000396808BF6D426D183D6004B91E46BAF109
:1052A000000F03D000B90C9ECAF8006058460DB03C
:1052B000BDE8F08F0E4690468146FDF772FE406ACB
:1052C00031780278914208BF761C002C7FF474AFCD
:1052D0006FE75FEA090128468DD00DF1FF3111F823
:1052E0000820521C01F8082085E79346327842F0E6
:1052F0002002652AD3D1334616F8011F2B2916BF89
:105300002D2916F801EB4FF02B0EAAE700E1F50569
:105310002DE9FD4E8BB00024DDF858901C60C9EBE0
:10532000C909B9F1230FC8BF4FF023095C60A24639
:1053300002E0491C4FF0010A08783028F9D000BF7C
:105340000FF2B81573A2A3460A9509920F461E469E
:10535000397816222846FDF773FE002800F09A805F
:10536000D94503DA3068401C306007E00A9A099991
:10537000801A085C0DF80B000BF1010B7F1C4FF03D
:10538000010AE5E73068401E30607F1C4FF0010ADB
:1053900038783028F6D0397816222846FDF750FEA6
:1053A000002800F08480D9450ADB00BF59A1401BCA
:1053B000085C0DF80B000BF1010B3168491E3160E0
:1053C0007F1C4FF0010AE6E70DF1FF335A5C4AB942
:1053D00033685B1C3360491E0029F5DC04BF8DF87F
:1053E0000040012132689200BAF1000F326046D0CD
:1053F0004FF0070C91FBFCFCC1F10705CCEBCC0C8A
:105400006544072295FBF2F20023C2EBC202AA1AFE
:1054100018BF0124A4468B425CDA072295FBF2F206
:105420001DF80340C2EBC202AA1A1ABF56F82C207C
:1054300004EB02140CF1010C46F82C406D1C5B1CB3
:10544000E9E7002300252C48394608E0854204DAC4
:1054500005EB850307EB4305303D491C01230F781D
:10546000A7F13009B9F10A0FF0D30F46BCF12D0FA7
:10547000316808BF6D426D18356003B917460C9945
:1054800021B1BAF1000F08BF0B9F0F6020460EB08C
:10549000BDE8F08EFDF785FD406A397802789142CB
:1054A00008BF7F1CBBF1000F7FF475AF70E7594652
:1054B000894591DA1DF80920072A06DD0DF1FF3133
:1054C00011F80920521C01F8092049463268521C83
:1054D000326081E7397841F0200170296446CED1ED
:1054E0003A4617F8011F2B2916BF2D2917F801CBB3
:1054F0004FF02B0CA5E7000000E1F5053031323309
:1055000034353637383961626364656641424344F5
:1055100045460000000102030405060708090A0BBE
:105520000C0D0E0F0A0B0C0D0E0F000062F30F2274
:1055300062F31F4200B500BF13009646944610392F
:1055400028BFA0E80C50FAD85FEA417C28BF0CC005
:1055500048BF40F8042BC90728BF20F8022B48BFDA
:1055600000F8012B00BD000003460846C16802692F
:10557000491C521E002A0261C16003D40068012246
:10558000002118474FF0FF30704703460846114688
:10559000C268521E11F1010FC26002D000680022E1
:1055A000184770472DE9F04F0FF2E01E8BB0DEE98F
:1055B0000067CDE9016703914FF0FF381C68149D27
:1055C000DFF81C9604948DF82B5000240694059265
:1055D0000446464609E0002E9DF82A0048BF0026F2
:1055E00000B1761C05994A1C05920021009101AB7F
:1055F000059942466846FDF7CCFC0028074605DCC5
:10560000059801784F1EBF41FF43FF0F009800F03F
:10561000EBFE00F0D5FE28B30698401C0690012250
:1056200003980021A047824600F0CAFE0028F3D16B
:105630000699491E1AF1010F00F0A280069100227E
:1056400003985146A04705980099C019252905904F
:1056500027D100782A282AD10598401C059010F8F7
:10566000011D25E00098DDF814A025280CBFA7F146
:10567000010BBB46BBF1010BE5D40698401C06901C
:10568000012203980021A0471AF8011B8842F1D09B
:10569000024603A92046FFF778FF0020B0426EDAE9
:1056A0006CE000980028A0D1B04268DA66E00021E2
:1056B0008DF82810002108910AE00898484505DA7D
:1056C00000EB800301EB430130390891501C059039
:1056D000059A1178A1F130000A28EED3CDF8248084
:1056E0002CA01178FDF764FC20B10598401C0590B2
:1056F000401E00788DF829009DF82900682805D102
:105700000599087868280CD1622206E06C2802BF4F
:10571000059908786C2804D17122491C8DF829203C
:105720000591059801780FF62C40FDF741FCA8B9CA
:105730000698401C0690012203980021A0470746C6
:1057400000F03EFE0028F3D10698401E17F1010F2D
:10575000069003D0039800223946A04703A92046AB
:1057600000F01FF800283FF736AF25B110F1230FE6
:1057700001D1404612E0002E48BF064630460DE0FB
:10578000304600280691FAD5F3E70000000000003B
:1057900000000000686A6C747A4C00000BB0BDE831
:1057A000F08F70B505460C460020A368A0771E78E0
:1057B000253E6ED01C3E25D0361F022E22D90E3E2D
:1057C00063D0761F1AD0F61E7CD0B61F1AD0B61E34
:1057D00012D0761E12D0761E022E13D9361F0DD08F
:1057E000761F13D0761E012E08D9361F4FD0B61E55
:1057F00004D0F61E02D070BD002265E02846BDE848
:105800007040EFE12846BDE87040FDE2207F0028AF
:1058100049D1607F622808D068281CD06A280ED041
:105820006C2821D071280AD01EE06168616051F8AF
:10583000040B616000281DD0E168017033E06168ED
:10584000616051F8040B6160002813D0E268D3173F
:10585000C0E9002327E06168616051F8040B6160D2
:1058600040B1E16801801EE06168616051F8040B9D
:10587000616038B90FF6E420FDF7B8FB4FF0FF3454
:10588000201A70BDE16801600DE06C206077012294
:105890001AE0E068401CE060012220680021A8476F
:1058A0000646252E01D1012070BD324621462846EC
:1058B000FFF76BFE16F1010F02D14FF0FF3070BD04
:1058C000002070BD4FF0FF322846BDE8704021E057
:1058D000C9B208E003789942A4BF90F802C08C4591
:1058E00014DAC01CD21E032A09D343782D2BF1D021
:1058F00010F801CB8C4518BF521EF4D106E03AB126
:1059000010F8013B8B4218BF521EF8D1012070479E
:10591000002070472DE9F84F8AB00D460026079603
:105920008246697F05926C290CBF4FF0010BB3468C
:105930000FF64422D2E90001059ACDE90301002ABD
:1059400029D5A868411CA960084601785E2903BFD3
:10595000401CA86010F8014D0024D5F8088098F884
:1059600000005D280CBF08F1010040465D21FDF7F5
:105970001FFB002800F01A81A0EB08010091A8602D
:105980000098032807DB821E2D2108F10100FDF796
:1059900057FB00B101266869002805DC059800283E
:1059A00014BF6FF0004001202861287FE0B96868CB
:1059B0006860BBF1000F01680AD0001D68600191AA
:1059C00091B94FF0FF348548784400F504701BE02E
:1059D000001D6860029139B98048784400F5FF7075
:1059E0004FF0FF3428300FE0287FB0B9E87FA0B136
:1059F0006968696051F8040B6960B0F1004F07D322
:105A00004FF0FF340FF67810FDF7F0FA201AC5E6D4
:105A1000A969884288BF0846A861089409960027AA
:105A2000DDF81490029C079ECDF814B0CDF81880D4
:105A3000DDF804B007E004F8018B0120A877A9691C
:105A4000491EA96102262969491E2961E868401C8E
:105A5000002900F1B780E860012228680021D047C2
:105A6000804618F1010F19D15346DDF814A04246C3
:105A700029461846FFF789FDB9F1000F03D0F0B2AF
:105A8000022800F08F80F0B2022800F09980F00721
:105A90005AD418F1010F40F0898055E0B9F1000F98
:105AA00002DD00F08DFC10E01FD509980028089851
:105AB0000ED10028009A0698414604D1FDF7C0FA9D
:105AC0000028D1D011E0FDF7BBFA0028CCD10CE0C2
:105AD0000028009A0698414603D1FFF7F9FE20B945
