:020000040800F2
:10000000D0BB002095700008E16D0008E36D00088A
:10001000E56D0008E76D0008E96D000800000000CC
:10002000000000000000000000000000BB300008DD
:10003000EB6D00080000000075300008F52C00088A
:10004000D7700008DB700008DF700008E37000085C
:10005000E7700008EB700008EF700008ED6D000815
:10006000F3700008F7700008FB700008FF700008CC
:1000700003710008077100080B7100080F71000878
:1000800013710008177100081B7100081F71000828
:1000900023710008277100082B7100082F710008D8
:1000A00033710008377100083B7100083F71000888
:1000B000F36D000843710008477100084B71000898
:1000C0004F71000853710008577100085B710008F8
:1000D0005F71000863710008F96D0008677100081E
:1000E0006B7100086F710008737100087771000868
:1000F0007B7100087F710008837100088771000818
:100100008B7100088F7100089371000897710008C7
:10011000FF6D00089B710008756E0008856E000871
:100120009F710008A37100088B6E0008A77100087A
:100130002DE9F04F0FF2A41CA1B0DCE90089CDE954
:1001400000892A9DDFF8DC9B049100248DF8435040
:100150000D944FF0FF38824616461F460FE0B34617
:100160002C461BF8011B0498D0470028049000F08F
:10017000A2800D98401C641E0D90F2D17619307843
:10018000252808D1002100220791089209910A929E
:100190000B910C920DE06A464146304600F0DAFFC2
:1001A000050001D10D98A1E0D9D50125E6E741F080
:1001B000010116F8010F2028F9D023280CD02B2894
:1001C00004D02D2805D0302809D076E041F0020176
:1001D000EFE741F00401ECE741F00801E9E741F005
:1001E0001001E6E70F9209E00F98484505DA00EBA9
:1001F000800402EB4402303A0F92761C3278A2F16E
:1002000030000A28F0D330782E2818BFCDF8388077
:1002100022D116F8010F2A2807D138683860761CD9
:1002200050F8042B38600E9216E02D280CBF761C77
:10023000002000220E920AE040B90E9A4A4505DAE3
:1002400002EB820403EB4403303B0E93761C3378BD
:10025000A3F130020A2AEFD3ADF8401021A0317883
:1002600000F082FF08B116F8010B8DF842009DF8EE
:100270004200682804D1307868280AD1622105E05C
:100280006C2804BF30786C2803D171218DF842109E
:10029000761C12A806903A4616F8013B02A9504671
:1002A00000F064F838B912AA02A9504600F0C8F963
:1002B00000287FF564AF404618E02A2892D13A68BA
:1002C0003A6052F8040B3A6000280F9003D5404280
:1002D0000F9041F00401761C95E70000000000003B
:1002E00000000000686A6C747A4C000021B0BDE820
:1002F000F08F622820D0682811D06A2803D06C289B
:1003000027D0712825D10868C01D20F0070008609B
:10031000D0E9002308300860194610467047002ACB
:100320000A680A60106803D0121D0A6000B217E064
:10033000121D0A6080B217E0002A0A680A6010687D
:1003400003D0121D0A6040B20AE0121D0A60C0B25A
:100350000AE0002A0A680A60106803D0121D0A60C9
:10036000C1177047121D0A60002170477CB50D4609
:1003700011461C462E69B4F1250200F04F811C3A4B
:1003800000F08480121F022A40F280800E3A00F0B2
:100390000981521F59D0093A78D0921E16D0521EA8
:1003A00035D0521E022A71D9121F30D0521F00F0D0
:1003B0009880521E49D0521E00F0E280D21E00F0FA
:1003C000FF80921E41D0D21E3FD02DE195F83A40D9
:1003D0006C2C09D06869421C6A610A680A6052F88C
:1003E000043B0A60335429E10A680A6052F8043B6E
:1003F0000A600093002201924FF0FF332B636A469C
:10040000294600F098F9002840F1188103E195F899
:100410003A000122FFF76DFFC5E90001002904D56C
:100420006869411C69612D220DE0288F810704D580
:100430006869411C69612B2205E0C00721D5686904
:10044000411C6961202232541BE095F83A000022D9
:10045000FFF74FFFC5E9000195F83800010710D5F7
:10046000D5E90023002B08BF002A0AD044F0200061
:10047000782806D1686930213154401C421C6A61D9
:100480003454214668693044E86087E00868C01D3C
:1004900020F007000860D0E9002308300860C5E9B3
:1004A0000023D5E90001C80F04D06869411C6961C7
:1004B0002D220DE0288F810704D56869411C6961F0
:1004C0002B2205E0C00704D56869411C6961202220
:1004D000325468693044E8602146284600F036FA14
:1004E000ACE005F13A02507820B14FF0FF340FF63E
:1004F000043074E01078622808D0682824D06A2874
:1005000012D06C282ED071280ED02BE00A680A6019
:1005100052F8040B0A6020B94FF0FF340FF6EC20BC
:100520005DE0E96A017089E00A680A6052F8040B2C
:100530000A6020B94FF0FF340FF6D0204FE0EA6A8E
:10054000D317C0E9002379E00A680A6052F8040B67
:100550000A6020B94FF0FF340FF6B0203FE0E96A9F
:1005600001806BE00A680A6052F8040B0A6020B947
:100570004FF0FF340FF6942031E0E96A01605DE04E
:100580000A680A6052F8040B0A60002120F0000299
:1005900021F0FF33C5E90023EE607821284600F002
:1005A0002DF94BE06C2285F83A200B680B6053F86C
:1005B000042B0B6052BB4FF0FF340FF684200EE08B
:1005C00095F83A206C2AF0D00868086050F8044B7F
:1005D0000860EC603CB94FF0FF340FF6482000F0A3
:1005E000EBFD201A76BD2E6B002E04D5204600F0C0
:1005F00003FE044608E032460021204600F006FED5
:10060000002814BF041B3446AC6117E0294600F0F3
:1006100092F8002812D54FF0FF3076BD6869411C72
:1006200069612522325409E06969481C6861252204
:100630007254210002D0431C6B613454002076BDFB
:100640002DE9F0410E4605469046726B7069316A9D
:10065000B46A121AB069521A716A121AF069521AFF
:10066000121A96F83800141B41070DD4002C0BDD2C
:100670002746B0682021A8470028B06057D0F06A0C
:10068000401C7F1EF062F4D1736942463146284611
:1006900000F098FC00284AD1376A002F0ADDB068C4
:1006A0003021A8470028B06041D0F06A401C7F1E6E
:1006B000F062F4D1B369F2683146284600F082FC5A
:1006C000A8BB776A002F09DDB0683021A847B06069
:1006D00068B3F06A401C7F1EF062F5D1F068B16922
:1006E000F36942183146284600F06CFCF8B9B76A45
:1006F000002F09DDB0683021A847B060B8B1F06ABA
:10070000401C7F1EF062F5D196F8380041070BD5EA
:10071000002C09DDB0682021A847B06038B1F06A2C
:10072000401C641EF062F5D10020BDE8F0814FF05E
:10073000FF30BDE8F0812DE9F8470D46A3B02F6BDF
:10074000002F0646904648BF6FF000470FF60C1486
:1007500000F088FDD4E90023696B4018CDE901233E
:10076000812828BF4FF0FF3042D20024002F33DD14
:10077000D8F8001001AA684600F0EEFC8146B9F1F5
:10078000000F38D4D8F8000010B9B9F1010932D4FB
:100790004F4521DB6869484481280AD300216963F9
:1007A00003AA29463046FFF74BFF040014D400206B
:1007B000686103ABD5F814A04A46694603EB0A000A
:1007C00000F064FDCA44C5F814A058F8040B0028D2
:1007D00018BFA7EB0907C9D14CB903AA294630466F
:1007E000FFF72EFF044614B90020686168632046B5
:1007F00024B0BDE8F0874FF0FF34F8E72DE9FC4363
:1008000007466F293E6908BF082405D041F0200043
:10081000782814BF0A2410243C25D7E90023642932
:1008200018BF69299046994605D1002B03D5D8F108
:10083000000869EB4909B9F1000F08BFB8F1000FD2
:100840001FD1386BE8B9082C4CD197F83800010754
:1008500048D530203B2586F83B0043E000280ED5E4
:1008600097F8380000F01400102808D17B6B7969E4
:10087000386A5B1A1B1A9A1A002AC8BF3A62BDE886
:10088000F3838DF80010404649462246E31700F0F6
:1008900009FD3032D0B26D1E3A28019504DB9DF877
:1008A0000000A0F151018A1872554046494622467F
:1008B000E31700F0F7FC80465FEA010908BFB8F1D2
:1008C000000F03D0F86871198842DCD3082C09D1D5
:1008D00097F83800010705D5705D302802D06D1EED
:1008E00030207055C5F13C02BA617119F960386B5E
:1008F0008242B3DA821A3A624FF6EF70398F0140C2
:100900003987BDE8F3832DE9D04306460F461446E8
:100910004FF00008DFF8109412E0E00707D54246D8
:100920004B463046394600F0D5FD06460F46404658
:10093000494642464B4600F0CDFD6410804689464C
:10094000002CEAD130463946BDE8D0832DE9F84F76
:1009500005468A464AF020048EB0D5E90089612C0C
:1009600002AE09D0286B002848BF062003D408BF78
:10097000672C01D101202863D5E900014A005215F6
:10098000521C0DD10B030BD0AAF1610103201A29CF
:10099000A86102D20FF2CC6110E00FF2CC610DE041
:1009A0004A005215521C0ED10B030CD1AAF1610161
:1009B00003201A29A86116D30FF2B461E868032254
:1009C00000F064FCC0E1CDE90C01DDE90C2323F06B
:1009D0000043B3F5801F0DD20027002B08BF002A6B
:1009E000019703D111E00FF28461E7E701AA00F05B
:1009F00047FE0AE0CD48CE4900EB1350DDE90C2359
:100A000001900B40CB4910461943C5E90001612C08
:100A10000DD1E86830210170821CBAF1610FEA60E3
:100A20000CBF7821582141706869801C6861D5E944
:100A30000001CDE90C01DDE90C2333F0004104BFD6
:100A40000028002300F04881612C40F0A080286B32
:100A5000494600284CBF4FF0210B00F1010B4046E6
:100A600000220023DDE90C8900F042FE01990BF120
:100A7000010738BF89F00049091F002F01918DF847
:100A800008200DF1090040F33581A949009106467F
:100A9000404649460022002300F042FE80F02981B2
:100AA0004800400D00F11C0211D0002A0FDD40F279
:100AB000FF739A4205DBA04909F000400143002082
:100AC00011E0009B194041EA025140460BE028F03A
:100AD000000039F0004108BF00280FBF49461C2222
:100AE000494600F035FE8046894600F0CFFEFF1FE4
:100AF000002F044609DD00F0E7FE02460B464046A3
:100B0000494600F0F3FE80468946F01D072104E0C7
:100B100004F00F0200F8012D2411002C01DD491E04
:100B2000F6D5491E5CBF002200F8012DF9D5DCE0A6
:100B30000020194602AA0A4400E05B1E12F801498F
:100B4000491E8442F9D00F2804D10DF10900425CFE
:100B5000521C4254002904D50198001D02AE5B1CB2
:100B60000190581E0CD43118AAF13A040A78303298
:100B7000D7B23A2FA8BFA218401E01F80129F5D517
:100B8000286B002840F1A780591E2963A3E0019932
:100B90006A4A47F29750414391FBF2F2019229F0E1
:100BA0000046D2F1070204DD40463146FFF7ABFEB6
:100BB0000AE0524200206249FFF7A5FE02460B46BA
:100BC0004046314600F004FF8046662C286B06BF85
:100BD000019F0A3706273F18142FC8BF142730205B
:100BE0008DF8080089460DF1090000E03046002F1D
:100BF00034DD06464046494601F00EF801460A46F5
:100C000006F1080304200A26B2FBF6F606EB860E70
:100C1000A2EB4E02303203F8012C0A22B6FBF2F2AC
:100C200002EB820EA6EB4E063036401E03F8026D34
:100C3000E9D1083F002F03F10806D7DD084600F090
:100C4000FFFF02460B464046494600F04FFE002299
:100C50003C4B00F03FFC80468946CBE70DF1090193
:100C6000401A0DF1090604E00199491E401E019148
:100C7000761C31783029F7D0662C02D10199491CB5
:100C800003E0652C0CBF012100212B6BCB1898428F
:100C9000B8BF431E002B1ED4834204DAF05C352813
:100CA000A8BF392000DA30201946721E02EB010875
:100CB00000E05B1E18F80199491E8145F9D03928DA
:100CC00002D1705C401C7054002904D50198401C6E
:100CD00016465B1C0190019800B200901BB2324690
:100CE0005146284600F034F82EE0C61D002F3FF78D
:100CF000CFAE30460DF10901401A03465845C8BF32
:100D00005B46002B0DF109063FF53AAF8342BFF673
:100D10000FAF0DF10900C15C07297FF709AF0F2064
:100D200007E70000CBCCCC0C0000244002FCFFFF06
:100D3000FFFF0F800000E03F0000F07FA086010071
:100D40000000F03F84D797410FB0BDE8F08F00005E
:100D50002DE9F84783B006468A461746984600F0C4
:100D6000FDF9B8F1000F406A356B90F8009002DC95
:100D70004FF00108BFA74AF02000BDF930406628B7
:100D800008BF641C15D0672840F0848014F1040F5C
:100D9000C0F28680AC4280F2838096F83800641CF2
:100DA000010702D4A845B8BF454620B22D1A48BF56
:100DB00000250FFA84FAF068B169BAF1000F25DC5A
:100DC0004A1C30234354002D03DC96F838000107F9
:100DD00003D5F06800F80290521C15EB0A0FB8BF5B
:100DE0006C4220B2441941424445B8BFA046B261AA
:100DF00071620FFA88F5F561F068B3692A463946E1
:100E0000184400F043FA641BB462C4E022B2904577
:100E1000084417DA4246394600F038FAB0694044CF
:100E2000B061AAEB0801002D716203DC96F838105E
:100E30000A0705D5F16801F80090F069401CF061DF
:100E4000B562A8E0394600F021FAB069002D50449F
:100E5000A8EB040803DC96F838100A0703D5F168FC
:100E600001F80090401CB0610FFA88F08542F368E9
:100E7000B069B8BFA8460FFA88F207EB0A01184418
:100E800000F004FAB1690FFA88F00144B161281A40
:100E9000706280E0BAF1610F14D14FF0700A16E071
:100EA000A84504DA96F838100A0758BF45466D1E63
:100EB00048BF0025BAF1670F14BF4FF0450A4FF045
:100EC000650A04E0BAF1410F08BF4FF0500AB1695A
:100ED000F368481CB061002D17F8012B5A5403DC4D
:100EE00096F838100A071BD5F168431CB36101F866
:100EF0000090002D14DDA8F101080FFA88F03946A2
:100F00008542F768B8BFA8460FFA88F2F81800F0D3
:100F1000BDF9B0690FFA88F108446D1AB0617562C5
:100F2000F068B1690844002C80F800A003D42B229B
:100F30004270811C03E02D2141706442811C00201D
:100F40006A460AE023460A2493FBF4F404EB840582
:100F5000A3EB450302F8013B401C24B2002CF1DC5A
:100F6000012806DC4AF02002652A04BF302201F87D
:100F7000012B48B9302001F8010B07E0401E1DF895
:100F80000030303301F8013B0028F7DCF268B0692B
:100F90001044091AF16196F8380000F01400102886
:100FA0000DD17269B169706A8A18F1698218B06AE4
:100FB0008A188218706B8242BCBF821A326204B0F7
:100FC000BDE8F087F8B505460E4617461C460020DA
:100FD00074B117F8011BB068A847B06030B1F06A6F
:100FE000401CF0620020641EF3D1F2BD4FF0FF30D0
:100FF000F2BD00007072696E74665F733A20256EF0
:1010000020646973616C6C6F776564007072696EDF
:1010100074663A2062616420256E20617267756D86
:10102000656E74007072696E74665F733A206261F7
:101030006420257320617267756D656E7400000011
:101040007072696E74665F733A2062616420256C09
:101050007320617267756D656E740000000000009A
:10106000000000006E616E004E414E00696E660029
:10107000494E46003000F0B40246106895681318D7
:10108000506803EB5004C0071DD54D441BE013F816
:10109000017B05F8017B491EF9D1A0B1B60813F810
:1010A000011B06F00306032E08BF13F8016B01EBCA
:1010B00006214942801C294405D011F8016B05F82E
:1010C000016B401EF9D1A3420ED013F8016B16F04C
:1010D000030104BF13F8011BC91C30090F28DAD122
:1010E00013F8010B0F30D6E7F0BC02F10C0070478B
:1010F0001B48704770B45368D418042B09DA41B107
:10110000057804F8015B10F8016B16B15B1C491EF1
:10111000F3E7536070BC704738B514461D4661B1A3
:10112000FFF7E8FF61686A6B204690476FF00102A5
:10113000811A02D0491E01D001E003E005E0002140
:10114000616032BD6FF0010032BD4FF0FF3032BD43
:10115000DA6B1047024BDFE7014BF9E701487047B4
:1011600014250020DC240020C9B202788A421AB17A
:101170001CBF10F8012FF9E718BF0020704730B4EA
:10118000002513E050F8042BD30744BFA9F1010355
:101190009A18091F042942F8045BFAD213468C07F7
:1011A00044BF15809B1CC90748BF1D7050F8041B25
:1011B0000029E7D130BC704780B500B906A00549C9
:1011C0000B681BB122220021984701E000F045FD89
:1011D000222002BDCCB70020636F6E737472616908
:1011E0006E742068616E646C65723A20626164207E
:1011F0006D6573736167650000F1010310F8011BF1
:1012000011B110F8011BFBE7C01A7047C9B2830780
:1012100006D0521E22D310F8013B9942F7D11FE0AD
:10122000083A13D302F1040241EA012141EA0141E3
:1012300050F8043B121F21BF4B40A3F1013C2CEAA4
:10124000030C1CF0803FF3D0C9B2001F083210F825
:10125000013B521E28BF91EA030FF8D818BF0120A6
:10126000401E704780B5FFF743FF006C02BDB1F52B
:10127000807F02D34FF0FF3070470170012070472C
:101280000078401E8041C043C00F70474AB1000043
:1012900011F8013B521E00F8013B1CBF11F8013B45
:1012A000F8E77047BBBBE1B1B2F5803F80F07E80CC
:1012B000022A1ED98C46B1FBF2F102FB11C31B04BA
:1012C00043EA1043B3FBF2FC02FB1C3380B240EA5A
:1012D0000343B3FBF2F002FB103240EA0C40002360
:1012E0007047022A05D98446B0FBF2F002FB10C217
:1012F00070474AB105D100F0010249085FEA3000A9
:10130000704700220023704700F0AABC0B000200C7
:10131000002100207047904271EB030CF6D3B3F527
:10132000803F2FD2F0B5B3FA83F7B1FA81F4A7F179
:101330000F0E3D1B5340CEF1200602FA0EF2F34190
:101340005340B5F10F0746D80F3C2C444140C4F13F
:101350002006A040F1414140B1FBF3F603FB16111A
:10136000A2FB0645001BA94102D2761E80185941F6
:1013700080EA010221FA0EF362FA0EF200215A40CD
:101380003046F0BD30B4B1FBF3FC03FB1C11A2FBF3
:101390000C45001BA94103D2ACF1010C8018594146
:1013A00030BC02460B46604600217047B2F1807F98
:1013B00065D3F0B5B2FA82F7B1FA81F4C7F10F063E
:1013C0003D1B22FA06F307F1110EF24120355A4077
:1013D000B5F10F07B8D94140C4F12006A040F14152
:1013E0004140B1FBF3FC03FB1C11A2FB0C45001BAD
:1013F000A94103D2BCF1010C801859410F2F12D31F
:101400000F3FC90341EA5041B1FBF3F603FB16114C
:10141000A2FB0645D4EBC030A94102D2761E80184B
:10142000594146EACC3C07B34140C7F12006B840D9
:10143000F1414140B1FBF3F603FB1611A2FB064557
:10144000001BA94102D2761E8018594180EA010290
:1014500021FA0EF3C7F1200462FA0EF20CFA07F03B
:101460005A402CFA04F13043F0BD80EA010221FA1F
:101470000EF3002162FA0EF260465A40F0BD8C462F
:10148000B1FBF2F102FB11C31B0243EA1063B3FB91
:10149000F2FC02FB1C331B024CEA002043EA1063FF
:1014A000B3FBF2FC02FB1C331B024CEA002043EAB4
:1014B0001063B3FBF2FC02FB1C331B024CEA00205E
:1014C00043EA1063B3FBF2FC02FB1C324CEA00203F
:1014D00000237047B0B581EA030C0CF0004C40F2D9
:1014E000FF7515EA11541DBF15EA1357AC42AF4200
:1014F00039E0E41923EA455343F48013C90241F06B
:10150000004141EA505EC7021100A7FB0202002819
:101510004FF00000EEFB01204FF00001E3FB07213C
:1015200018BF42F00102401800214941E3FB0E01BF
:10153000A4F580640F0302D252004041494154F1A6
:1015400001046CDD470872F1004250F1000051EBDC
:101550000451A1F580115CBF41EA0C01B0BD4CEA19
:1015600005510020B0BD05EA1357AC4214BFAF428D
:1015700041E050EA410E1CBF52EA430E02E06146D0
:101580000020B0BD24423C441BD15FEA070EF6D0D8
:10159000090302BF01460020AEF1140EB1FA81F733
:1015A000AEEB070401FA07FE0C37C7F1200100FA81
:1015B00007F7C8404EEA000E23EA455343F4801370
:1015C000A2E733F00043B3FA83F704BFB2FA82FE16
:1015D00077440B3FE41BB7F1200E2FBF02FA0EF346
:1015E000BB40C7F1200E22FA0EFE38BF43EA0E03BD
:1015F000BA40641C82E750EA410E14BF52EA430E1F
:101600006FF000014FF4001717EB430F8ABF194624
:1016100017EB410FB5E74CEA05510020B0BDD4F1FE
:101620000104B4F120070FDAC4F12007520828BFE3
:1016300042F0010210FA07F501FA07F7E1BF2A4369
:10164000E0403843E1400FE0352C98DCC7F120043E
:1016500052EA400220FA07F218BF42F0010231FAC2
:1016600007F0A1400A43002172F1004250F100004E
:1016700051EB0C01B0BD0268531C03601170704740
:1016800010B5144600F002F8226010BDC1F30A53F1
:1016900043B14A0012F5001F28D2A3F2FE32A1EB9B
:1016A0000251704750EA410C20D001F0004C31EA61
:1016B0000C01B1FA81F204BFB0FA80F3D2180B3AF0
:1016C000B2F120032CBF00FA03F1914041EA0C0172
:1016D0003EBFC2F1200C20FA0CF319439040524255
:1016E00040F2FD33D21A01EB0351704700227047DC
:1016F0004FF4001C1CEB410F94BF1CEB430F09E09F
:1017000041EA030C50EA4C0C52EA0C0C03D2994209
:1017100008BF9042704714BF8B428242704700005E
:101720004FF4001C1CEB410F94BF1CEB430F09E06E
:1017300041EA030C50EA4C0C52EA0C0C03D28B42E7
:1017400008BF8242704714BF994290427047000020
:10175000124254D440F2FF7C1CEA11530FD063456F
:1017600031D09B1863453CBF01EB0251704701F03B
:10177000004141EA0C510020AFF30080704750EA6D
:10178000410320D001F0004C91EA0C011CD0B1FAC9
:1017900081F30B3B9A420DD9D21A994051EA0C01C0
:1017A000C3F1200C20FA0CFC61449840531C40F219
:1017B000FF7CD7E7914041EA0C01C2F1200C20FAEE
:1017C0000CF3194390407047B0FA80F31533202B87
:1017D000E0D3202AEED3203A203B9A4209D9D21AEC
:1017E00000FA03F141EA0C010020531C40F2FF7C97
:1017F000B8E700FA02F141EA0C01002070475242BA
:1018000040F2FF7C1CEA11530DD06345DBD0B2EBF4
:10181000030C3CBFA1EB025170470CF1010221EA1D
:10182000035141F4801150EA410CCCD001F0004C3E
:10183000352A27DC30B481EA0C01B2F1200309DA41
:10184000C2F12003044601FA03F5D0402843D140F9
:101850009C400CE0C3F12002450020FA03F418BFBD
:1018600044F0010421FA03F091400C43002174F18B
:10187000004550F1000051EB0C01244230BC7FF4D4
:101880007BAF70476146002076E70000C1F30A5342
:1018900040F2FE329B1A14DDD3F120034FEAE172CD
:1018A00008DDC90241EA505141F00040D84080189B
:1018B0005040704703F2E13010B1D24382F0004053
:1018C0007047002070470000C11768B14840401AB7
:1018D000B0FA80F29040D21CC907C2F5846241EA96
:1018E000025202EBD02140057047000070B44FF067
:1018F000004591EA030F40F1B5816B40841A71EB0A
:10190000030603D2001BB141121973414FF4001CAE
:101910001CEB410F34BF7CEB430442E00C0DA4EB05
:101920001356352E4FDC45EAC323DB0A45EAC121B5
:10193000C912B6F120050DDD63FA05F6EB4086EA23
:101940000305124218BF45F00105C01851F100010E
:101950000CD213E062FA06F5F2405540F3415A40CA
:10196000B340F3405A408018594107D349085FEA11
:1019700030005FEA350528BF45F0010501F580110B
:10198000420875F1004250F1000041EB04514E0055
:1019900016F5001F70BC38BF70470020090D0905FF
:1019A00070471CEB410F10D252EA43060BD0BCEB40
:1019B000410F05D80C0DAB43661E342EB6DD02E098
:1019C000AB438018594170BC704770BC7047000031
:1019D000F0B540F2FF7581EA030C0CF0004C15EAFB
:1019E00011541DBF15EA1357AC42AF42E5E0BC41AC
:1019F000C1F31301C3F31303801A994143F4801315
:101A000004D2641E4000494180185941C90241EA8C
:101A10005051B1FBF3F603FB1611A2FB0675D7EB91
:101A2000C020A94102D2761E80185941C90241EA5C
:101A30005051B1FBF3FE03FB1E11A2FB0E75D7EB59
:101A4000C020A94103D2AEF1010E8018594189028C
:101A500041EA9051760546EA8E2EB1FBF3F603FB80
:101A60001611A2FB0675D7EB8020A94102D2761E83
:101A700080185941C90241EA50514EEA060EB1FBA5
:101A8000F3F603FB1611A2FB0675D7EBC020A941A4
:101A900002D2761E80185941C90241EA5051B1FB69
:101AA000F3F703FB1711A2FB0735D3EBC020A941C5
:101AB00067F100070CBF004247F0010766F3D52726
:101AC0004FEA1E31B80814F5806412DDBD0775F1C8
:101AD000004250EB0E5051EB045111F5801F5CBFDA
:101AE00041EA0C01F0BD4CF07F6141F0E041002083
:101AF000F0BDBD076D0840EA0E5041F48011D4F1ED
:101B00000104B4F120060ADAC4F120060200E04024
:101B100001FA06F3E1401843B24015430EE0342CBD
:101B200013DCC6F1200445EA40056D0820FA06F2F0
:101B3000154321FA06F0A1400D43002175F1004242
:101B400050F1000051EB0C01F0BD00205FEA0C01E8
:101B5000F0BDCFB992185B41B3FA83F704BFB2FA74
:101B600082F6BF190B3FB7F120062FBF02FA06F32A
:101B7000BB40C7F1200622FA06F638BF3343BA400D
:101B80001CB1E419641E33E77F4231F00041B1FA21
:101B900081F404BFB0FA80F6A4190B3CB4F120061E
:101BA0002FBF00FA06F1A140C4F1200620FA06F684
:101BB00038BF3143A0403C1B1AE7AC421ABF05EACC
:101BC0001357AF4212E050EA41061CBF52EA4306E7
:101BD000BFE750EA4107304661461CBF41EA055164
:101BE000F0BD52EA430C08BFC143F0BD00204FF4E2
:101BF000001616EB410F98BF16EB430F08BF16EB0C
:101C0000410F24BFC14305E016EB430F0CBF6146F3
:101C10004CEA0551F0BD0000400D491840EA812012
:101C20000CD2490DA1F58061491C40F0004005DB54
:101C3000D1F11F0154BFC840C01770470020704742
:101C4000014648B1B0FA80F18840C91CC1F58461F1
:101C5000090501EBD02140057047012000F0B8B81C
:101C600070470000841A71EB030604D26E40001B1B
:101C7000B141121973414FF4001C1CEB410F34BFEA
:101C80007CEB430683E00C0DA4EB1356362E00F3D9
:101C90007C80012E45EAC32341DC43EA525312BF44
:101CA000D20292025B08240545EAC12141EA505163
:101CB000D2EBC020994125D407D1B0FA80F610FAB2
:101CC00006F162D00020203608E0B1FA81F6B1407A
:101CD000C6F1200220FA02F21143B0404FEAF47438
:101CE000B4EB465434F001064FEA74040AD8D6F532
:101CF0000016760D04F00044F04061FA06F2504000
:101D0000F1404840C00A40EA415021F0004128BF5C
:101D10005FEA500550F1000044EBD12135E0DB0AC9
:101D200045EAC121C90AB6F120050EDD42EA0242A8
:101D3000120CC5F1200603FA06F6EB4042EA06054E
:101D40006D42984161F100010DE062FA06F5F24042
:101D5000554063FA06FC82EA0C02F3405A406D4299
:101D6000904161EB030111F4801F05D1641E6205EF
:101D700002D06D004041494121F48011430875F1C2
:101D8000004350F1000041EB045170BC70471CEB64
:101D9000410F15D223F0004352EA43060BD04FEA1D
:101DA0004C0CBCEB410F04D80C0D661E342EB7DD75
:101DB000EBE7801A994150EA410608BF0021E4E7A9
:101DC00008BF1CEB430F28BF6FF00001DDE70000E8
:101DD00080B5AFF30080024A11001820ABBEFBE7CC
:101DE00026000200F0B585B050260B9D25B986F37C
:101DF000118800F000FBFEE70C9C24B986F31188E3
:101E000000F0F9FAFEE75C270097009F5C2F04D0F2
:101E100086F3118800F0EFFAFEE70A9E009F256323
:101E20000027022584F859500397029404AD0195C8
:101E3000009600F034F8204600F077F8049805B0DA
:101E4000F0BD2DE9F8430646174684B0884699460A
:101E5000B80000F07FFD05001CD05C2000F07AFD8A
:101E6000040014D00D990C982563002284F85920A1
:101E700003920191009002944B463A464146304607
:101E800000F00DF8204600F050F8012004E028464C
:101E900000F0EBFD4FF0FF3005B0BDE8F0832DE919
:101EA000F0470A9F81460C461546386B9A46A52294
:101EB000A90000F02DFE396B01EB8502101FC00850
:101EC0004FEAC00808F0070007F1340554B10021BB
:101ED000625C6A54605C10B1491C1029F8D3002080
:101EE000E87300E02870089E099C062E88BF06262D
:101EF000FE62AE61E861C6F10706381D00F032FEF1
:101F000007F1180000F02EFE3F61BE617F620020E5
:101F1000286287F8580052464946404600F05EFE67
:101F2000386004B12760BDE8F0872DE9F04100F08A
:101F3000CDF8DFF81858DFF81888E86C401CE86422
:101F40001426A86A28BBAC62E86C012829D10027B6
:101F500006FB07F0404400F0F8FD7F1C072FF7D385
:101F600005F1740000F0F1FD05F18807384600F036
:101F7000ECFD284600F0E9FD05F1140000F0E5FD58
:101F800005F1380000F0E1FD05F17400E8622F630F
:101F900007E0A86D28B9E06AA96ACA6A904228BF1A
:101FA000AC62A86E401CA866606400F017FC464353
:101FB000211D08EB060000F0D8FD00F08AFEA86D98
:101FC00030B100F049FA03D200F07BFC00F013FAC4
:101FD000BDE8F08138B500F079F800F08BF800F03A
:101FE00078F808B100F01BF9A86E401CA866A86A32
:101FF000844208D1211D05F1140000F0B6FD686B84
:10200000401C686307E0E86C401EE864204600F06E
:10201000EEFA00F003FB00F05CFEA86D58B1A96A6F
:102020008C4208D1286F20B100F0F5F800F0E3F9F8
:10203000FEE700F0DBF931BD80B588B1DFF80C2791
:10204000116F21B100F05DF800F0D5F9FEE7116FD6
:10205000491C1167002100F03DFC00F08FF808B921
:1020600000F0C4F901BD2DE9F041050004D100F0F4
:1020700048F800F0C0F9FEE7DFF8D066B06A8542A4
:1020800008BF002020D000F00BFE6C69D6F82C8031
:10209000376B00F01EFE444518BFBC420BD006F162
:1020A00038018C4209D1A86A28B995F8580001284E
:1020B00018BF032008D1022006E006F11400844274
:1020C00016BF002C04200120BDE8F081044600F07A
:1020D000E7BD68B9E16ADFF8782614234B43D0588E
:1020E00030B9686D012202FA01F120EA0101696547
:1020F000A06A7047DFF8545604B9AC6A201D00F09E
:102100005ABD502080F311887047211D142042438E
:102110009818704780B586B000210591049103AAF4
:1021200004A905A800F032FE059804990290002247
:10213000009201910023039A0BA10FF2A530FFF743
:1021400051FE70B1FFF7DDFF00F055F9DFF8FC0537
:102150004FF0FF31C166012282650021016500F068
:102160005BFD07B000BD000049444C450000000085
:10217000DFF8C007016F491C0167704770B5DFF8D1
:10218000CC65306F0024002520B900F044F800F041
:1021900032F9FEE700F084FD306F401E3067306F8B
:1021A000002836D1F06CD8B933E0F068C46800F08C
:1021B00036F800F087FAE06A716DDFF81437012213
:1021C00082401143716514225043211D184400F0D0
:1021D000CCFCE06AB16ACA6A904224BF0121316630
:1021E00030680028E1D10CB100F018FAF46D3CB170
:1021F00000F062F808B101203066641EF8D1F56580
:10220000306E30B1DFF830174FF08050012500F00C
:10221000F1F800F04FBB502181F31188704704F1B1
:10222000180000F0C8BC2DE9F047DFF820758046A3
:10223000386F401C38670025F86C07248142164629
:1022400032D3641E1420DFF8883660434FF024092F
:10225000191809FB05F0012200F02CF84519002C93
:10226000EFD1F96A09FB05F000F023F800EB050A4D
:10227000396B09FB0AF000F01CF8824409FB0AF0F4
:10228000042207F1140100F015F8824409FB0AF357
:10229000032207F1380108EB030000F07CF900EBA2
:1022A0000A050EB100203060FFF768FF2846BDE840
:1022B000F087022240446EE12DE9F843DFF88C7488
:1022C000386F0026002851D13C6D641C3C6510D14C
:1022D000F86A006820B1FFF79EFF00F08CF8FEE777
:1022E000F86A396BF9623863786E401C786600F0E2
:1022F00095F9F86EDFF8D89584424FF0140825D38D
:102300001AE0281D00F057FCA86A18B105F1180062
:1023100000F051FCE86A796D012282401143796531
:1023200008FB00F0291D484400F01FFCE86AB96A68
:10233000CA6A904228BF0126F86A006898B1F86A14
:10234000C168CD6868688442DBD2F866B86AC06A42
:1023500008FB00F059F80010386E022928BF01264A
:1023600038B1012605E04FF0FF30EEE7F86D401C74
:10237000F865A3E2DFF8D423106F10B101211166D4
:10238000704710661421506DB0FA80F3C3F11F033B
:102390004B43DFF83C15C85838B9502181F31188F8
:1023A000BFF34F8FBFF36F8FFEE7C81800F108032C
:1023B000416849684160994204BF4968416040688A
:1023C000C1689162704710B50C4620B9FFF799FEBD
:1023D00000F011F8FEE7DFF87423936A03F11801A7
:1023E00000F0D0FB2046BDE8104009E0DFF84815BA
:1023F0004FF080500860BFF34F8FBFF36F8F70476F
:10240000012100F067BA38B5C068C46824B9FFF785
:1024100078FEFFF7F0FFFEE7FFF701FFDFF82C5330
:10242000286F60B900F04EF9E26A686DDFF8A034F9
:102430000121914008436865FFF767FE02E004F15F
:102440001801284600F091FB00F006F802D20120A6
:10245000286632BD002032BDA86AC16AE06A8142A6
:102460007047DFF8D0144A6E0260096D4160704712
:10247000F8B504460D46502024B980F31188FFF7C3
:10248000BAFFFEE725B980F31188FFF7B4FFFEE736
:1024900000F006FCDFF89C04016D62682E688B1A60
:1024A00016F1010F0ED0476ED4F800C0674501D079
:1024B00091420BD2B34207D2F31A2B60416E2160D6
:1024C000006D6060002402E000202860012400F01C
:1024D00000FC2046F2BDDFF85C140120086670475E
:1024E00070B59B4CDFF84C5411E000F0D9FB286A22
:1024F000C668301D00F05FFBE86C401EE864686B46
:10250000401E686300F0E5FB304600F070F8686B31
:102510000028EAD121680229F9D3FFF767FFF6E71F
:1025200070B505000E46894808BF856A356005F11B
:10253000340114467160EA6A3261296BF1616A6C98
:10254000B2600022E96C7161052BB26111D0816A21
:102550008D4208BF327310D0032B33730DD1016F3E
:10256000491C0167A86A08B102213173FFF706FE12
:1025700003E02846FFF777FD30734CB10021286B4C
:1025800000E0491C10F8012BA52AFAD0890800E0C8
:102590000021318470BD2DE9F8430D4604462868BA
:1025A00090460027C8B100F01BF804BF406868607F
:1025B0006868C66800F014F804BF4068686068681E
:1025C000D0F80C9024207843211843460122484635
:1025D000FFF7A6FF7F1CB145ECD13846BDE8F2837A
:1025E00068684068686005F108018842704710B566
:1025F000044694F8590040B9206B00F036FA2046A2
:10260000BDE8104000F031BA10BD0128F7D0022813
:10261000FAD0FFF776FDFFF7EEFEFEE74B49C86AFA
:10262000006810B94FF0FF3203E0C86AC268D06892
:102630004268CA667047DFF8FC12886D08B901204D
:102640007047086F08B902207047002070472DE9D5
:10265000F04104460020002C32D0E16A3B4DAA6ACA
:10266000D36A994226D2A069002804D4A86AC26A13
:10267000C2F10702A2611427DFF85482626979432C
:1026800041448A4212D100F01DF8012628B9686D34
:10269000E16A06FA01F188436865A86AC06AE062E7
:1026A0008640696D0E4300F055F808E0A86AC16ADB
:1026B000E16204E0E16CAA6AD36A994200D2012087
:1026C000BDE8F081201D00F076BA2DE9F041044606
:1026D0000021002C37D01D4DA86A5022844204D01E
:1026E00082F31188FFF787FEFEE7206D20B982F3A1
:1026F0001188FFF780FEFEE7E26AE36C401E9A4213
:10270000206520D0F8B9FFF7DDFF01261427DFF898
:10271000C081002801BFE16A07FB01F258F80200FE
:10272000002805D1686D06FA01F120EA010169650A
:10273000E06CE062C0F10701A16186406A6D16435A
:1027400000F008F801210846BDE8F081CCB2002075
:1027500068B3002047436E65211D08EB070000F0B9
:1027600004BAF8B5040038D0206D502220B982F3A5
:102770001188FFF740FEFEE7E36C994238BF194627
:10278000E36A8B4229D0012827D1DFF8A851A86A33
:10279000844204D182F31188FFF72DFEFEE7A06981
:1027A000DFF82C61E16200285CBFC1F10701A16183
:1027B000142761697B43F21891420ED1FFF782FF23
:1027C00028B9696DE06A012282409143696500F091
:1027D00005F84743211DF019B0E0F1BD0122E06A80
:1027E000696D824011436965704700002DE9FE4F15
:1027F0000746002038702425DFF83801C46CC06C0F
:10280000684300F0A7F85FEA000947D0002221469C
:10281000FFF709FD82464FF0000B0FF2281816E073
:102820003954401C0F28FBD3002139543F18A068AD
:1028300001903246218C009141462369384600F0D0
:10284000EDFB3846FEF7D8FC3F180BF1010BD345E2
:102850001FD205FB0BF009EB0004207B04280ED8E7
:10286000DFE800F0030507090B00582608E05226B0
:1028700006E0422604E0532602E0442600E000265B
:102880006168384600F0EAFB3846FEF7B5FC2021C7
:10289000C8E74846BDE8FE4F00F0E7B8BDE8F78F4F
:1028A000DFF89010886A18B1886A026D521C0265C0
:1028B000886A704700F00DFA284670BD3046BDE8C2
:1028C000F2831D4A4FF080511160704700000000F4
:1028D00068B30020F8B5174D2F6D0C46A96A06465F
:1028E000081D00F068F930B9A86A696DC06A012254
:1028F00082409143696516F1010F05D124B1A86AA0
:10290000011D05F1380019E0A86AF6194660BE42BB
:10291000A86A05D2011D286BBDE8F44000F032B969
:10292000011DE86A00F02EF9E86E864238BFEE66B7
:10293000F1BD0000CCB2002004ED00E0BDE8F440A1
:1029400000F013B909256309257509257509257551
:102950000D0A00002DE9F8430446FFF709FC6B4F10
:10296000B8684FF00009002500BB07F1200307F10C
:10297000200113F0070F48F286300A4604D0CA1D22
:10298000D208D200801A081880180838C008C00081
:102990003A607D60B86045600560831A53601060DE
:1029A00050683861F8604FF00040F8614FF050080F
:1029B000F869044236D1ACB3083414F0070F1FBFD6
:1029C00004F1080004F00704041B14F0070F02D000
:1029D00000F044F8FEE72CB3F868A04222D33E682A
:1029E00039467068A04226D2306800281CBF3146A4
:1029F0000646F6D11FE0301D02517460084600F013
:102A000061F87168F8683A69401AF860904238BF16
:102A10003861F86901437160356009F0070578692C
:102A2000401C7861FFF7AAFB15B100F017F8FEE72C
:102A30004846BDE8F283B8688642F3D00A68306839
:102A4000086002F108097268121B112AD9D33119E2
:102A500011F00700CFD000F001F8FEE788F31188ED
:102A6000BFF34F8FBFF36F8F7047002800D17047BF
:102A700038B5A0F10805254C6968E2695023114278
:102A800002D100F018F8FEE7286810B100F013F842
:102A9000FEE791436960FFF76BFBE16868684118E6
:102AA000E160284600F00EF8A069401CA061BDE876
:102AB0003140FFF763BB83F31188BFF34F8FBFF340
:102AC0006F8F704730B511490A4600E01A46136807
:102AD0008342FBD35368D418844203D14068C3189F
:102AE0005360104643681468C518A54208D1896828
:102AF0008C4204D06168CB184360246800E00C4627
:102B00000460824218BF106030BD0000A425002080
:102B100062F30F2262F31F4200B500BF1300964616
:102B20009446103928BFA0E80C50FAD85FEA417CDF
:102B300028BF0CC048BF40F8042BC90728BF20F8A5
:102B4000022B48BF00F8012B00BD4FF0FF3200F10F
:102B5000080182604160C16000F108020261002149
:102B60000160704700210161704710B542684A60FA
:102B700093688B6094686160916008610168491C8A
:102B8000016010BD30B50A6812F1010F08BF03697A
:102B900007D000F1080300E023465C682568AA42DC
:102BA000FAD25A684A6091608B6059600861016886
:102BB000491C016030BD4368016982689A6083687E
:102BC00042685A604A68824204BF83684B600022B0
:102BD00002610868401E086008687047490810B51F
:102BE0004900A0F10C034FF0807459609C600FF213
:102BF0000D01196040F8202D203810BD53494A6856
:102C0000502012F1010F80F31188BFF34F8FBFF3F3
:102C10006F8F00D0FEE7FEE71CB54D490A780192A0
:102C2000FF230B7007220C788DF800409DF8000000
:102C3000464C00F050002070A26006E0401EA060EC
:102C40009DF8000040008DF80000A0689DF800206D
:102C50001306F3D4C0F10702042A02D000F018F8DA
:102C6000FEE7000200F4E060A060019808703948B7
:102C7000016841F470010160026842F07042026034
:102C800000F070F80020606000F027FA002016BD08
:102C9000502080F31188BFF34F8FBFF36F8F7047C1
:102CA000502080F31188BFF34F8FBFF36F8F2749F8
:102CB0004A68521C012A4A600AD127490A68130649
:102CC00006D080F31188BFF34F8FBFF36F8FFEE7FD
:102CD00070471E49486838B9502080F31188BFF307
:102CE0004F8FBFF36F8FFEE7401E486008BF80F331
:102CF0001188704780B5FFF7CBFFFFF7DDFA18B1F9
:102D000015494FF080500860002282F3118801BD00
:102D100010B5EFF30580502110280C4A09D30F4B52
:102D2000185C1478A04204D281F31188FFF7B3FF36
:102D3000FEE790680A4A136803F4E063984204D2FD
:102D400081F31188FFF7A7FFFEE710BD6C24002078
:102D500000E400E020ED00E004ED00E0F0E300E03E
:102D60000CED00E00748084B0021016081604FF442
:102D70007A721968B1FBF2F2521E426007210160BB
:102D8000704700BF10E000E0D82400205A4B0360D9
:102D900003F15C00086080211160704718B500BF26
:102DA0005EA0564CD0E900238FB002A8CDE90223E3
:102DB00000F0E5F9A06000BF5AA0D0E90023CDE9FA
:102DC0000023684600F0DBF9E06010220DF11000EE
:102DD00056A1FEF75BFA002104A800F0D9F92060A3
:102DE0001C2208A855A1FEF751FA002108A800F0FE
:102DF00090F9606010B010BD18B5B1B034214048F2
:102E0000404C00F0DBF9FFF74BFF2AA852A11C222F
:102E1000FEF73CFA00212AA800F07BF920601C2272
:102E20000DF18C0053A1FEF731FA002123A800F028
:102E300070F960601C221CA855A1FEF727FA00213A
:102E40001CA800F066F9A0601C2215A857A1FEF787
:102E50001DFA002115A800F05CF9E0601C220EA804
:102E600059A1FEF713FA00210EA800F052F92061D3
:102E70001C2207A85BA1FEF709FA002107A800F0B1
:102E800048F960611C2268465DA1FEF7FFF9002148
:102E9000684600F03EF9A061FFF71BFF0020FFF736
:102EA00099F832B010BD38B5E4B068464FF4C87137
:102EB00000F084F94FF4C871684600F07FF9124CB5
:102EC0000CA56846FFF792FC104800F07BF96946B4
:102ED000284600F077F9002200F01AF84FF4FA7053
:102EE00000F046F9012200F013F84FF4FA7000F0F8
:102EF0003FF9E6E725730A0070B00020A4B7002070
:102F00007824002074B7002000100140AC6D000848
:102F10004FF40051204600F033BA000000000000DA
:102F2000000000000000000000000000030000009E
:102F3000240300000000000000000000486F0008AB
:102F4000F92D000800000000000000000002000051
:102F50000000000000000000546F000851680008E5
:102F60000000000000000000C80000000000000099
:102F700000000000646F0008A5700008FDFF00005D
:102F8000000000002C010000000000000000000014
:102F9000706F0008B1700008FDFF00000000000025
:102FA0002C01000000000000000000007C6F000801
:102FB000A72E0008FDFF00000000000090010000A7
:102FC0000000000000000000886F0008E1680008B1
:102FD000FDFF0000000000002C01000000000000C8
:102FE00000000000946F0008F1680008FDFF000079
:102FF0000000000090010000000000000000000040
:10300000A86F00083B690008FDFF000000000000F9
:103010009001000000000000000000000CB430B57A
:1030200083B00A4606A90291044600250194009542
:1030300002AB01A9084878441E30FDF779F8019ADF
:10304000157000284EBF04460198041B204603B0AB
:1030500030BC5DF80CFB00BF1FE6FFFF5FEA000C11
:1030600011F8012B00F8012B12B111F8012BF9E72F
:1030700060467047EFF30980BFF36F8F1D4B1A68EE
:1030800020E9F00F106008B54FF0500080F3118870
:10309000BFF34F8FBFF36F8FFFF76CF94FF0000056
:1030A00080F31188BDE8084019680868B0E8F00F9F
:1030B00080F30988BFF36F8F70470E4B196808685B
:1030C000B0E8F00F80F30988BFF36F8F4FF0000076
:1030D00080F311884EF00D0E7047074800680068B5
:1030E00080F3088862B661B6BFF34F8FBFF36F8F6E
:1030F00000DF0000F4B2002008ED00E001460020EF
:10310000842918BFC81C704780B5FFF703F800205A
:1031100002BD38B5044684B0606900281CBFA069B0
:1031200000280D4612D0B4F90800FFF7E7FFA169A7
:1031300002912B46626901920090226921686068C1
:10314000FEF750FE0390039805B030BDB4F90800B7
:10315000FFF7D4FF03A9019100902B462269216853
:10316000606892B2FEF76DFE0128ECD00020EBE71C
:1031700080B500B90120FEF75FFF002002BD416865
:1031800000291CBF012000F0D0B9012000F0C2B915
:1031900080B58268002A1CBFC368002B06D00021BE
:1031A00000914168006800F052F902BD4168006872
:1031B000BDE80840002200F079B900000022FFF7C6
:1031C000ABBC00000EB4C0B5024603A800210190BC
:1031D000009101AB0121044878440C30FCF7A8FFB2
:1031E00006BC5DF810FB00BF773E00002DE9F847F4
:1031F0000027BE46694A6A4B4FF00F0882460BE033
:1032000016683040106006E054604C68E403F7D55F
:103210001068064316607F1C0E6836FA07F000F04F
:10322000AD80012000FA07F52E40AE42F3D1486888
:1032300058B301281AD002281FD0032833D01128F0
:1032400017D012281DD0574CA0421CBF564CA0428C
:103250001BD0564CA0421CBF554CA04215D0554C1B
:10326000A0421CBF544CA0420FD01EE0D1F80CE08D
:103270001BE0C86800F1040E17E0C86800F1080EF2
:1032800013E0C86800F10C0E0FE0886810B94FF029
:10329000040E0AE001284FF0080E14BFCAF81450BB
:1032A000CAF8105001E04FF0000EB6F5807F03D24F
:1032B00050464FEA870C05E0A7F108040AF1040024
:1032C0004FEA840C046808FA0CF5AC430EFA0CF5CE
:1032D0002C4304604868C0009DD51868DFF8DCC046
:1032E00040F0010018601C6804F001040094BC0068
:1032F0000098B8085CF8205004F00C0408FA04F9AF
:1033000025EA09092E4DAA4508BF002518D02D4DE4
:10331000AA4508BF012513D02B4DAA4508BF022599
:103320000ED02A4DAA4508BF032509D0284DAA452D
:1033300008BF042504D0274DAA450CBF0525062546
:1033400005FA04F444EA09044CF82040F0434C68C0
:10335000E40294684CBF3443044094604C68A40277
:10336000D4684CBF34430440D4604C685568A4030F
:103370004CBF46EA050400EA050445E7BDE8F187CD
:1033800002B9090401617047134A136803421CBF64
:10339000106000F0D4BB7047000000000004014042
:1033A000181002400000111000001210000021103F
:1033B000000022100000311000003210080001400F
:1033C00000080140000C01400010014000140140C1
:1033D00000180140001C01401404014070B50400B5
:1033E0000D4602D100F0C8FAFEE7FFF759FC206C49
:1033F000E16B226800FB01F3491E4843104413446B
:10340000A3600026A663E060626004F144004FF010
:10341000FF310170417075B92069A0B104F110004D
:10342000FEF7F1FF78B1DFF86C164FF080500860BE
:1034300000F09DFA07E004F11000FFF786FB04F1AD
:103440002400FFF782FBFFF744FC012070BD7CB530
:103450001C46502320B983F3118800F088FAFEE758
:1034600024B983F3118800F082FAFEE72AB129B962
:1034700083F3118800F07BFAFEE769B90093009EA0
:10348000502E0ED1069B009D012684F846600094C4
:1034900000F028F8204676BD83F3118800F067FA23
:1034A000FEE783F3118800F062FAFEE7F8B5050045
:1034B0000E46174602D100F05FFAFEE706FB05F064
:1034C0005030FFF747FA04000AD0002084F8460085
:1034D00000943B4604F150023146284600F002F8C1
:1034E0002046F2BD38B5049D1C4601B92A462A6023
:1034F000E863296428460121FFF770FF85F84C40F6
:1035000031BD30B100218160002202600023C36020
:1035100018E0704710B5024600210120FFF7C6FFF2
:103520000446FFF7EEFF204610BD1CB500900B4689
:10353000002200210120FFF78AFF0446FFF7E1FF88
:10354000204616BD2DE9F64782B004461E46502798
:1035500014B900F00AFAFEE75FEA010A01D1206C13
:1035600070B9022E02D1E06B01280CD1FFF763F88D
:1035700000285ED1039800285BD000F0F6F9FEE742
:1035800000F0F3F9FEE700F0F0F9FEE7039907F128
:103590001000FEF718FF384600F03EFAFEF7EEFD89
:1035A00018B9C8F8009000F0E2F9FFF779FBB86BA2
:1035B000F96B884242D3022E40D00398002835D0C0
:1035C00014B900F0C0F90124FFF783FBFEF7D0FD2A
:1035D000FFF766FB07F1440000F0B8F904BF0022D2
:1035E000027000F0B8F904BF00224270FFF771FBCF
:1035F00000F03CF888BBFFF753FBB86BF96B8842CF
:1036000014BF00250125FFF764FB002DBED138460D
:1036100000F002FAFEF7B2FDC7E718B1C8F8009053
:1036200000F0A5F9FFF755FB01201CE0FFF751FB67
:1036300018E02746002400F0EBF8B6E73246514682
:10364000384600F0A1F9796A0029E6D007F1240094
:10365000FEF7D9FE0028E1D1E4E7384600F0DCF9B6
:10366000FEF78CFD002004B0BDE8F08703A9684692
:10367000FEF7FEBE2DE9F8430446884615461E4671
:10368000502714B900F071F9FEE7B8F1000F01D12D
:10369000206C28BB022E02D1E06B012823D1FFF75A
:1036A00037FBEFF3118900F02BF801D3022E22D162
:1036B00094F94570A06B32464146204600F064F90B
:1036C00017F1010F12D1606A98B104F12400FEF7DE
:1036D0009AFE002818BF002D0BD00120286008E0BA
:1036E00000F043F9FEE700F040F9FEE77F1C84F8A4
:1036F0004570012000E0002089F31188BDE8F283C5
:1037000087F31188BFF34F8FBFF36F8FA06BE16B0F
:10371000884270472DE9F74306460F46002450259E
:1037200026B985F3118800F022F9FEE70FB9306C55
:1037300048B9FEF780FF78B9029868B185F311881F
:1037400000F015F9FEE785F3118800F010F9FEE7A7
:1037500000F0F7F8FEF712FDFFF7A2FAB56B00F0E4
:1037600057F825B90298B8B9FFF7B3FA4DE03946D2
:10377000304600F03DF96D1EB563306940B106F189
:103780001000FEF740FE18B1C8F8009000F0EFF806
:10379000FFF79FFA012039E014B900F0D4F80124B2
:1037A000FFF797FAFEF7E4FCFFF77AFA06F1440018
:1037B000415711F1010F04BF0022027000F0CBF855
:1037C00004BF00224270FFF784FA02A9FFF74FFFFF
:1037D0000028304610D100F051F90028B8D000F090
:1037E000BFF800F0AEF8FEF7C9FC0028B4D1C8F865
:1037F000009000F0BCF8AFE700F00EF9FEF7BEFC59
:10380000304600F03BF90028A6D00020BDE8FE833A
:10381000DFF880824FF0805970472DE9F24382B083
:10382000064600240025502716B900F09EF8FEE752
:10383000306C10B100F099F8FEE7FEF7FCFE40B9DD
:10384000029830B100F091F8FEE700F07AF8FEF748
:1038500095FCFFF725FAB06BFFF7DAFF30B9029855
:10386000D0B9002D68D000F080F8FEE7401EB063AC
:10387000306810B9FFF714F8B060306940B106F154
:103880001000FEF7C0FD18B1C8F8009000F06FF806
:10389000FFF71FFA012052E014B900F054F8012498
:1038A000FFF717FAFEF764FCFFF7FAF906F1440098
:1038B00000F04CF804BF0022027000F04CF804BF86
:1038C00000224270FFF705FA02A9FFF7D0FE002898
:1038D00030461AD100F0D2F80028B6D0306838B996
:1038E000FFF7DEF9B068FEF7B2FE0546FFF7F1F923
:1038F00000F036F800F025F8FEF740FC0028A8D1CB
:10390000C8F8009000F033F8A3E700F085F8FEF760
:1039100035FC304600F0B2F800289AD075B1FFF7B8
:10392000BFF9706A00281DBF306B0168C1F1070143
:103930000021B068FEF715FFFFF7CBF90020BDE8C6
:10394000FE83304668E06846FEF78BBD90F90010B4
:1039500011F1010F704790F9011011F1010F70473B
:10396000029906F12400FEF72EBD87F31188BFF3FC
:103970004F8FBFF36F8F7047502080F31188BFF3D4
:103980004F8FBFF36F8F7047F8B506461546B46B7F
:10399000326C002742B9306830BBB068FEF795FE44
:1039A00000210746B1601FE065B97068FDF76EFC45
:1039B0007068316CB26808449042706014D330680B
:1039C000706011E0F068FDF761FC306CF168404216
:1039D0000144F1603268914202D2B1680844F0605B
:1039E000022D01D104B1641E641CB4633846F2BDDB
:1039F000026C002A0B4600D1704710B5C16884687C
:103A00001144C160A14224BF0168C160C168BDE822
:103A100010401846FDF73ABCF8B50546FFF740F9E7
:103A200005F1440494F9016070B2012815DB686A5D
:103A300098B105F12400FEF7E6FC08B1FEF74BFD56
:103A4000761EF1E72869A0B105F11000FEF7DBFC56
:103A500008B1FEF740FD7F1E08E04FF0FF366670AC
:103A6000FFF737F9FFF71CF994F9007078B20128D5
:103A7000E8DA2670BDE8F140FFF72BB910B504462F
:103A8000FFF70EF9A06B441EA441FFF722F9E00FE7
:103A900010BD000004ED00E080B500F09DF800F0DE
:103AA0001DF800F0ABF800F053F900F077FA00F0E1
:103AB00083FB00F0CDFB00F0C1FA00F023FC00F026
:103AC00053F900F03DF900F065F900F0EFFA00F06D
:103AD00031FCFFF763F9FFF717FBFEE700B58FB086
:103AE00005A82821FFF76AFB68461421FFF766FB4B
:103AF0004FF480310022069107920D91012005902C
:103B0000099002224FF4E0110C920E9105A800F0EA
:103B10005FFC08B100F05EF8022101910F204FF424
:103B20008061009000220391029204920221684673
:103B300000F0DEFD08B100F04DF80FB000BD80B51B
:103B40001C491D480A69012A04D100210091002264
:103B5000012102E0012100910122FFF711FC6946D9
:103B6000032000F0B5FE01BD1CB500681349884272
:103B700002D100F01FFF13BD1149884218D1002067
:103B80000090104C104800F060FF104800680023BF
:103B90006A462146FFF76EFD00210098A17038B1FA
:103BA0000B484FF080510160BFF34F8FBFF36F8F11
:103BB00013BD0000782400200010014000100040D8
:103BC000001400404CAD0020C8B50020A4B7002070
:103BD00004ED00E072B6FEE780B50748016841F0E9
:103BE00010010160032001F086FA0F2001F0C2FAF3
:103BF00001F0FCFA002002BD002002402DE9F8414E
:103C000085B068461021FFF7D9FA4048404D046856
:103C1000404EDFF8048144F01004046042F22107B2
:103C200001683E4C01F0100104910499026842F0D1
:103C300004020260036803F0040304930499026819
:103C400042F008020260036803F008030493049939
:103C5000026842F040020260036803F040030493EC
:103C60000499026842F0200202600022006800F01D
:103C700020000490394604982046FFF781FB00227B
:103C800012212846FFF77CFB002206213046FFF771
:103C900077FB00224FF4E0614046FFF771FB00978D
:103CA0000121019100220221039100F03BF8022042
:103CB0001B4900900191002200F034F8122100F01D
:103CC00036F82846FFF792FA062100F030F8304621
:103CD000FFF78CFA8020002100900191029140466C
:103CE0006946FFF783FA4FF4E06100F020F84046A0
:103CF000FFF77CFA00220521072001F009FA0720CE
:103D000001F023FA06B0BDE8F0810000181002406F
:103D100000080140000C0140001801400010014063
:103D200000001110029269462046FFF75FBA009129
:103D300001220192002102910222039269467047FA
:103D400080B58648864900F017F800B108E001BD4B
:103D500080B58448844900F00FF800B100E001BD4F
:103D6000BDE80140FFF736BF80B58048804900F0CC
:103D700003F800B1F4E701BD01604FF4E132002324
:103D80000C2142608360C360036141618361C36150
:103D900001F052BA80B577487749FFF7EDFF00B1DF
:103DA000DEE701BD78B585B0064668461021FFF70D
:103DB00005FA31686A4A714891424FF400644FF441
:103DC000806537D1416841F400214160416801F4C8
:103DD000002104910499026842F01002026002225C
:103DE000036803F0100300F0A6F8654D2846FFF7BE
:103DF000FDF900F08EF8FFF7F9F9624C6248206097
:103E000000218020E0606160A1602161002060618C
:103E10002021E061A161204601F070FE08B1FFF7AA
:103E2000D9FEF463666200220521342001F070F9A6
:103E300034204BE04C4A91421BD10168534C41F471
:103E400080410160026802F4804204920499026891
:103E500042F0040202604FF40071006800F00400B8
:103E600000F05EF80021019102910095694620461C
:103E70004BE03F4A91422CD14168454C41F400311E
:103E80004160416801F4003104910499026842F0F4
:103E9000200202602021006800F0200000F040F8BD
:103EA0004020002100900191029120466946FFF7D1
:103EB0009DF93848016841F0E06141F00801016076
:103EC00000220521262001F023F9262001F03DF9EA
:103ED0001DE0294A91421AD1416841F48021416094
:103EE000416801F4802104910499026842F00802BB
:103EF00002600222036803F0080300F01CF8264D5C
:103F00002846FFF773F900F004F8FFF76FF906B0E1
:103F100070BD0021019102910094694628467047C6
:103F200004900222049800910192032103912046FB
:103F30006946FFF75BB90493049900950321039147
:103F400001926946704701B54FF6FF730122694639
:103F5000044801F0AEF9009802BD000010B6002040
:103F6000004C004058B6002000380140A0B60020A8
:103F700000440040E8B6002000480040181002400D
:103F80000010014030B7002030040240000801401A
:103F90000014014004000140000C0140D0B58AB07B
:103FA00006A800F078F800BF7DA402A8D4E9006755
:103FB000CDE9006700F06FF8724C4FF08040206050
:103FC000472149F63F400022E0606160A260226123
:103FD00000F02FF808B1FFF7FDFD4FF48050069078
:103FE00006A9204600F033FF08B1FFF7F3FD204695
:103FF00000F08CFD08B1FFF7EDFD00F04FF808B1BF
:10400000FFF7E8FD012203920021029104910022B2
:10401000059202A9204600F08DFE08B1FFF7DAFDF7
:10402000204600F0DCFC0021204600F081FD0AB0B3
:10403000D0BDA261204600F0C5BC0000D0B586B05E
:1040400002A800F028F8504857A44721D4E9006797
:104050004E4C206040F2E730E06000228020CDE945
:104060000067A0616160A2602261FFF7E3FF08B111
:10407000FFF7B0FD4FF48050029002A9204600F0F7
:10408000E6FE08B1FFF7A6FD00F008F808B1FFF75B
:10409000A1FD06B0D0BD1021FFF790B8002100911E
:1040A00001912046694601F049BF00001CB500BFE0
:1040B0003FA0374CD0E90023CDE9002347216160C0
:1040C00000223448206040F2E731A260E160FFF74F
:1040D000B0FF08B1FFF77EFDFFF7E0FF08B1FFF783
:1040E00079FD13BD18B585B0044601A8FFF7D3FFCD
:1040F00020682949B0F1804F21D1486840F0010083
:104100004860486800F00100009000980A6842F09A
:1041100004020A600022096801F0040100910121F3
:1041200000981E4801910292039201A9FFF75EF8E0
:10413000002205211C2000F0EBFF1C201EE0124A8B
:10414000904209D1486840F002004860486800F099
:1041500002000090009813E00E4A904210D1486887
:1041600040F0200048600022486800F020000090E5
:1041700005210098372000F0CBFF372000F0E5FF45
:1041800006B010BD38B500200004004080B5002006
:10419000C8B500200014004018100240000801407B
:1041A000000000000000000000000000000000000F
:1041B0000000000000000000204A2148214980B58D
:1041C000426000234FF4804201608360C36002615B
:1041D00043618361C361036201F0ECFE18B1BDE885
:1041E0000140FFF7F7BC01BD30B585B0044601A81A
:1041F0001021FEF7E3FF2468124DAC421CD1124C93
:10420000206840F0080020601222216801F00801B7
:104210000091C02100980D48019102920321049160
:1042200001A9FEF7E3FF606840F400106060606879
:1042300000F400100090009805B030BDA086010089
:104240004CB400200054004018100240000C014003
:1042500080B52848284901604FF4827208214260E5
:10426000C16100234FF400720A218360C3600361BF
:1042700043618261036243628362C16201F042FF73
:1042800018B1BDE80140FFF7A5BC01BD30B585B050
:10429000044601A81021FEF791FF2468164DAC4298
:1042A00026D11648164C016841F48051016002681D
:1042B00002F4805200920099026842F00402026007
:1042C000A021006800F004000090022200980191F3
:1042D000029203210491204601A9FEF787FF4020A6
:1042E0000021019002910391204601A9FEF77EFF73
:1042F00005B030BDF4B3002000300140181002407A
:104300000008014080B50A48016841F002010160DF
:104310000022006800F002000090052100983A2079
:1043200000F0F6FEBDE802403A2000F00EBF00BFEC
:10433000141002401CB500BF23A3214C1B88ADF80C
:10434000003000F02FF84FF47A73022200F033F8B7
:10435000012200F028F800F001F816BD38B500BFC2
:104360001AA3174C1B78174D8DF8013000F01AF87E
:104370004FF47A7301220DF10101284601F01DFF6F
:104380004FF47A7301226946284601F0C3FF0122E7
:1043900000F009F89DF80000C10701D5022032BDE8
:1043A000002032BD002210212046FEF7E9BF0000A8
:1043B0004FF47A7301226946024801F0FEBE000004
:1043C00000080140F4B300206699000005000000D9
:1043D0002DE9F843040016D02078DFF8B064C10757
:1043E00013D5706800F00C00042807D0706800F046
:1043F0000C00082840D17068C1033DD530688103A6
:1044000003D56068002800F0F4802078DFF88C7411
:10441000810719D5706810F00C0F07D0706800F094
:104420000C00082860D17068C1035DD43068810732
:1044300003D52069012840F0DC803168606921F0F3
:10444000F80141EAC00131602178080770D5A06900
:10445000DFF84C14002865D001220A6002F09CF9B4
:104460000546706A810700F1C68002F095F9401B8D
:104470000228F6D9032035E16068B0F5803F04D109
:10448000306840F48030306014E008B930680AE0E9
:10449000B0F5A02F306806D140F48020306031683C
:1044A00041F4803105E020F480303060316821F43F
:1044B00080213160606858B102F06EF905463068BD
:1044C0008103A2D402F068F9401B6528F7D3D1E735
:1044D00002F062F905463068810396D502F05CF976
:1044E000401B6528F7D3C5E7206970B10121396009
:1044F00002F052F905463068810700F1B68002F0FB
:104500004BF9401B0228F6D9B4E7386002F044F9B1
:1045100005463168880797D502F03EF9401B02280E
:10452000F7D9A7E7086002F037F90546706A8107F6
:1045300070D502F031F9401B0228F7D99AE708B983
:10454000306A09E00528306A06D140F00400306284
:10455000306A40F0010005E0400840003062306AF7
:1045600020F00400306241F28938E06868B102F05E
:1045700013F98146306A810700F1848002F00CF95A
:10458000A0EB09004045F5D374E702F005F9814638
:10459000306A810776D502F0FFF8A0EB09004045AC
:1045A000F6D367E702F0F8F8401B02287BD961E7F1
:1045B00002F0F2F8001B022840F28F805AE700F068
:1045C00093F804463068810140F18B8002F0E4F8F2
:1045D000001B0228F6D94DE701280AD07068226A2C
:1045E00000F48031914202BF00F47010616A884289
:1045F00077D0012076E0DFF898020168C9084FF40F
:104600007A72B1FBF2F2009200BF0098411E0028BE
:104610000091F9D12078410739D5F0690025C10012
:1046200009D4F06940F08050F0610125F06900F094
:10463000805000900098DFF86C82D8F80000C10527
:104640001BD4D8F8000040F48070C8F8000002F0D5
:10465000A3F88146D8F80000C1050ED402F09CF8FA
:10466000A0EB09006528F5D304E73068616920F004
:10467000F80040EAC1003060E6E6E06801287FF417
:104680005EAF65E71DB1F06920F08050F061E06930
:1046900038B3716801F00C0108299DD002288ED131
:1046A00000F022F80546306881013FF57BAF206AB3
:1046B000B0F5803F05D17168A06821F40031014355
:1046C00071607268206A616A22F4741202430A43BC
:1046D0007260012000F009F80446306881017FF51E
:1046E00067AF0020BDE8F2830020386602F054B8BE
:1046F0002DE9F0410400884672D06B4E00F077F847
:1047000002D200F06FF86BD12068604D810712D59E
:10471000400703D5696841F4E061696020780107CA
:1047200003D5686840F4605068606968A06821F04B
:10473000F001014369602178C80749D56068012804
:1047400002D129688A0303E00228296802D18A017C
:1047500002D445E08A0743D56968890840EA8100A8
:10476000686002F019F807466868616800F00C009C
:10477000B0EB810F2CD002F00FF8C01B41F2893151
:104780008842F1D3032021E02078410705D56A68EB
:10479000E06822F4E06202436A602178080706D5E7
:1047A0006968206921F4605141EAC001696000F044
:1047B00023F86A683D49364BC2F30312895CC8404E
:1047C00018603548006800F0D5FC0020BDE8F08195
:1047D000306800F007008045D6D200F003F8D3D04F
:1047E0000120F3E73168C90848EAC1013160306847
:1047F00000F00700404570472D4926480A6802F03E
:104800000C03082B00D0704710B500BF2BA4C2F3D7
:104810008343D203E35C08D5096858432BA3C1F353
:1048200040415A5CB0FBF2F010BD184621494843A4
:1048300010BD17481E4A006813681F49C3F30222BF
:1048400006E013481A4A006813681B49C3F3C222E2
:10485000895CC840704710B50F220260144A136883
:1048600003F003034360146804F0F00484601368E9
:1048700003F4E063C3601268D20802F4E0620261EC
:104880000948026802F007020A6010BD00100240E9
:10489000D824002000127A00D424002000004242D4
:1048A00080044242007000400020024084700008F2
:1048B0000410024000093D00C8700008020304050E
:1048C000060708090A0B0C0D0E0F1010010200005C
:1048D00070B50C00064601D0082800DB38E000F077
:1048E0002FF82948072E00F1300127D8DFE806F01D
:1048F00004090C0F13191C202168016062684260D2
:104900001CE02168816019E02268C26016E022681C
:104910000969026102E022684969426171B1D0B25D
:104920000BE02168816109E0E17C80F82F1005E04F
:1049300020680860096A09B1C0B288470EE000002B
:10494000124D28684FF0FF31FEF767BF00000000EE
:1049500012A0FEF737FC4FF0FF3070BD286800232F
:1049600000220021FEF7EEFD002070BD80B5084B4F
:10497000012807BF01220121002201211846FEF76C
:10498000FFFC002002BD000078240020B0B700200A
:104990000010014000207047002070477365745F6D
:1049A0006461746162617365206572726F720D0A71
:1049B0000000000002494A68087882184A6070477F
:1049C000CC24002038B5040001D1012032BD00F014
:1049D000ABF818B900F099FAFFF784FB4EE090F8B5
:1049E0003D10012901D001207047022180F83D10BF
:1049F0000168CA6842F00102CA600068DFF8F81076
:104A000088421CBFDFF8F42090420ED0B0F1804FF6
:104A10001CBFDFF8EC10884207D0DFF8E820904296
:104A20001CBFDFF8E410884209D1816801F007015A
:104A3000062908D0016841F00101016003E0026825
:104A400042F001020260002070470168CA68520803
:104A50005200CA6041F2111301680A6A1A4202BF89
:104A60000A6A40F244431A4203D10A6852085200CB
:104A70000A60012180F83D10002070470220687014
:104A8000211D206800F05BFA0120A872A870E87070
:104A900028716871A871E8712872687268700020C6
:104AA00032BD2868C26842F0100270472868C268A8
:104AB00042F0020270472868C26842F0080270475C
:104AC0002868C26842F0040270470546002405F1D8
:104AD0003E007047C2600122286800F0F0BA816889
:104AE00001F0070106297047064A904270470168A5
:104AF00041F0010101607047002C01400034014089
:104B00000004004000080040000C004038B50400DC
:104B100001D1012032BD00F007F818B900F0F5F915
:104B200001F040FEFFF7AABF04F13C05687870472A
:104B300038B5FFF7CAFF11B9027803790AE00429F2
:104B400002D14278437905E0082907BF827883794A
:104B5000C278C379012A08BF012B01D0012032BDE0
:104B600019B90222027002711BE0042905D1022248
:104B700042704271FFF7A4FF15E0082905D1022217
:104B800082708271FFF797FF0DE00222C270C2713E
:104B9000080006D00429EDD00829F3D00C291FD035
:104BA00021E0FFF783FFFFF795FF2868DFF850103B
:104BB00088421CBFDFF83C2090420DD0B0F1804FFE
:104BC0001CBFDFF83410884206D0FFF78DFF1CBFF2
:104BD000DFF82810884208D1FFF781FF07D004E0F2
:104BE000FFF75FFFDFE7012401E0FFF780FF2046CA
:104BF00032BD00000034014000040040000C0040C1
:104C0000002C014070B504462068C5680669B107EC
:104C100014D5AA0712D56FF0020101610122227793
:104C2000806910F0030F204602D001F0BDFD03E0C3
:104C300001F014FE00F07BF800202077700715D5F6
:104C4000690713D520686FF0040202610221217701
:104C5000806910F4407F204602D001F0A5FD03E0FA
:104C600001F0FCFD00F063F800202077300715D537
:104C7000290713D520686FF008020261042121770B
:104C8000C06910F0030F204602D001F08DFD03E053
:104C900001F0E4FD00F04BF800202077F00615D578
:104CA000E90613D520686FF0100202610821217710
:104CB000C06910F4407F204602D001F075FD03E08A
:104CC00001F0CCFD00F033F80020207706F0010160
:104CD00005F00100014206D020686FF0010101617A
:104CE0002046FEF741FF300608D5290606D5226882
:104CF0006FF080001061204601F0B1FD700608D50C
:104D0000690606D522686FF040001061204601F068
:104D1000A7FDB0060AD5A90608D522686FF02000C5
:104D200010612046BDE8704001F09BBD70BD20467B
:104D300001F098BDF8B500F083F801D10220F2BD72
:104D4000012084F83C007AB9F36872683168206801
:104D500000F036F92168886920F00C0088618A69C2
:104D6000B06802438A6163E0042A10D1F368726874
:104D70003168206800F069F92068816921F4406198
:104D800081618169B26841EA0221816150E0082AAB
:104D900024D12168F068726833681C311B024F68A7
:104DA000D1F804C02CF4807CC1F804C027F400774B
:104DB000D1F800C04FEA9C0C42EA8C0260F3071263
:104DC00003F400730A603B434B60086820F00C005A
:104DD00008600A68B06802430A6029E00C2A26D1FC
:104DE0002068F168726833681C301B034768D0F88C
:104DF00004C02CF4805CC0F804C027F40057D0F83D
:104E000000C02CF4407C4CEA022C61F30F3C03F40C
:104E10000053C0F800C03B434360016821F4406187
:104E200001600268B16842EA0122026000E00125E7
:104E300000F001F8F2BD002084F83C0028467047DD
:104E40000446002594F83C0001280E46704770B5D2
:104E5000064606F13C0500242878012801D10220ED
:104E600070BD0120287002226A70DFF8A801326844
:104E70009368034093600868020018BF102830D080
:104E8000202818BF30282CD0402826D0502819D0F0
:104E900060281BD0702806D0B0F5805F27D0B0F511
:104EA000005F07D022E000F02BF83068816841F005
:104EB000770105E000F024F83068816841F4804112
:104EC000816014E000F018F850210BE0CA684968CE
:104ED000306800F0D0F8602104E000F00DF84021C7
:104EE00000E00146306800F0D8F800E0012401201D
:104EF000687000F00AF870BDCA684968306895E0CB
:104F0000CB684A6889683068CFE000212970204664
:104F100070470246002031B1042907D0082908D083
:104F20000C2909D070471068406B70471068806B7F
:104F300070471068C06B70471068006C7047F0B520
:104F4000DFF8D4C0354F0368354C364D364E6045DA
:104F500018BFB84208D0B0F1804F18BFB04203D09C
:104F6000A84218BFA0420DD14A6823F07003134332
:104F7000604518BFB84207D0B0F1804F1CBFB042A7
:104F8000A84201D0A04203D1CA6823F4407313435E
:104F90004A6923F080031343036060458B68C36252
:104FA0000A68826212BFB842096901630122426144
:104FB0000169CA0703D50169490849000161F0BDCB
:104FC000F0B5046A056A144E6D086D000562B042C2
:104FD00085691CBF114FB8420BD0B0F1804F1CBF88
:104FE000114EB04205D00F4FB8421CBF0C4EB0421C
:104FF00003D1AD0842EA850201E045F0010263F306
:10500000071224F00A0401F00A01826121430162BF
:10501000F0BD00008800FFFF002C0140003401407B
:10502000000C0040000800400004004010B5036A76
:10503000046A64086400046223F00A03846924F0AB
:10504000F00444EA0214846144E030B5046A056A5D
:1050500025F0100505620901856925F4407545EACA
:10506000022563F30F3524F0A00401F0A00185614F
:105070002143016230BD10B5036A046A24F01004B4
:10508000046223F0A003846924F4704444EA0234E7
:10509000846143EA0113036210BD826822F070024A
:1050A000114341F007018160704710B5846824F412
:1050B0007F442143114341EA0321816010BD10B5B3
:1050C00001F01F01036A01248C40A343036202FA2A
:1050D00001F1036A1943016210BD000009010200D9
:1050E00002D41F48815470471E4B02F00F021A442D
:1050F00002F8041C70471C4B19684FF6FF020002AF
:10510000114000F4E06008431849084318607047F4
:1051100038B5154B1C68C4F30223C3F10704052CF2
:1051200028BF04241D1D072D34BF0023DB1E0125CD
:1051300005FA04F4641E2140994005FA03F35B1E4E
:105140001A401143BDE83440C8E7010007D40122EA
:1051500000F01F01064B8A40400943F820207047A9
:1051600000E400E018ED00E00CED00E00000FA05BE
:1051700000E100E018B5014687B000223620FFF7B5
:10518000C7FF3620FFF7E1FF1448154C016841F0D6
:105190001001016001A9006800F010000090009863
:1051A00002A8FFF758FBFFF744FB0E49216040F2CD
:1051B000E73240000C49E260B0FBF1F0401E606055
:1051C00000222261A2602046FFF7FCFB18B92046AE
:1051D000FFF705FC00E0012008B010BD1C100240E4
:1051E000F0B400200010004040420F0080B510488D
:1051F000016841F001010160026802F001020092C1
:105200000099426842F0805242600022406800F0FB
:10521000805000900F2100986FF00100FFF778FF99
:105220000448016821F0E06141F00071016001BDB6
:10523000181002400400014038B5040001D10120DB
:1052400032BD00F019F808B900F01AF800F01DF8A6
:1052500000F025F8FFE7416100F001F832BD206859
:10526000C16841F40051C16000206860202169706C
:10527000A97000216163704704F1400568787047A8
:10528000002129702046FEF78DBD2420687020681B
:10529000C16821F40051C160204600F0E9BB2068DC
:1052A000016921F4904101612068416921F02A01DE
:1052B00070472DE9FC4106460D4696F8410020282E
:1052C00014461F4635D10DB1200001D1012031E037
:1052D00000207064212186F8411001F05DFAB48449
:1052E0008046F48400F034F804BF306900281ABF07
:1052F0002C4600250024F08C0097002843461BD044
:1053000000228021304600F066FAE0B93068002CB7
:1053100012BF14F8011B35F8021BC1F308014160EC
:10532000F08C411EF184E6E7202086F84100002041
:1053300000E00220BDE8F68100224021304600F066
:105340004AFA0028F0D0202086F841000320F1E737
:10535000B068B0F5805F704710B500F130039C7CF9
:10536000202C0AD109B1140001D1012010BD002464
:105370001C60BDE8104000F069BA022010BD10B5F5
:1053800000F130039C7C202C0AD109B1140001D11A
:10539000012010BD00241C60BDE8104000F071BA6F
:1053A000022010BD43E8002100297047016801F187
:1053B0000C0252E8002F01F10C03704738B5044687
:1053C00004F1410520684069297821290BD10006A4
:1053D00009D500F01BF8FCD1A06B08B100F008FC67
:1053E000204600F0A0FA20684069697822290BD194
:1053F000400609D500F017F8FCD1E06B08B100F0C9
:10540000F7FB204600F0A0FA002032BD206800F132
:10541000140151E8001F00F1140221F0800142E85C
:10542000001000287047206800F1140151E8001FA7
:1054300000F1140221F0400142E8001000287047FA
:105440007CB5044621680B68CD684A6913F00F00EB
:1054500007D1980661D5AA065FD52046BDE87640FB
:10546000A8E2D00702D415F4907F56D0D80705D50E
:10547000E90503D5606C40F001006064580705D56C
:10548000D10703D5606C40F002006064980705D531
:10549000D10703D5606C40F004006064180707D59D
:1054A000A90601D4D00703D5616C41F008016164FD
:1054B000606C002830D0980604D5A90644BF204669
:1054C00000F078FA20684069616C0A0701D4400650
:1054D0001DD5204600F038FA20684169480611D5EC
:1054E000FFF7A1FFFCD1E06B60B10FF2BD4141635A
:1054F000E06B00F0A2FB00280ED0E06B416BBDE832
:105500007C4008472046BDE8764001F0ACB9204613
:1055100001F0A9F90020606473BD206B012804F13B
:10552000410240F08680D80600D5EE0640F1818029
:10553000002300930D6800954B680093009849691B
:1055400048063AD5E16B0868406880B20028E3D08D
:10555000A38D9842E0DAE0858869202827D020686A
:1055600000F10C0151E8001F00F10C0321F48071DF
:1055700000F09BF8F3D100F09CF8490800F1140307
:10558000490000F092F8F6D100F093F800F114030E
:1055900021F0400100F089F8F6D120205070002160
:1055A000216300F08CF8FCD1E06B00F021FB0220BD
:1055B0006063A18DE08D091A35E0A08DE18D411A5F
:1055C000E08D00281CBF88B200286DD0206800F153
:1055D0000C0353E8003F00F10C0523F4907345E8F9
:1055E00000300028F2D1206800F1140353E8003F96
:1055F0005B0800F114055B0045E800300028F2D19B
:105600002020507000222263206800F10C0252E832
:10561000002F00F10C0322F0100243E800200028C4
:10562000F2D1022060632046BDE87C4089B201F0DF
:105630001BB9180629D52E0627D51078212833D175
:10564000A068B0F5805F04BF2069002808D1206AF7
:105650000288C2F308024A60206A811C216204E0C9
:10566000206A421C226200784860E08C401EE08480
:1056700080B2C8B92068C16821F08001C16020688B
:10568000C16841F04001C16073BD58060CD56B067E
:105690000AD5C86820F04000C8602021117020465B
:1056A000BDE8764001F0E1B873BD43E80010002882
:1056B0007047206800F1140151E8001F704720680E
:1056C00000F10C0151E8001F00F10C0221F0100163
:1056D00042E80010002870470146486A09680A68D5
:1056E00093063BD40021C185016801F10C0252E808
:1056F000002F01F10C0322F4807243E800210029FD
:10570000F2D1016801F1140252E8002F520801F1B0
:105710001403520043E800210029F2D1016801F18D
:10572000140252E8002F01F1140322F0400243E872
:1057300000210029F2D1202180F84210026B012AB9
:105740000CD1016801F10C0252E8002F01F10C03A9
:1057500022F0100243E800210029F2D10021416328
:10576000026B012A04BF818D01F07EB801F07EB882
:10577000406A01214163026B012A18BF01F0B6B8EB
:10578000818D490801F070B80000000038B5446A06
:105790002068406904F141052978212906D10106D4
:1057A00004D50022E284204600F0BDF82168486953
:1057B0006978222906D1400604D50021E1852046DA
:1057C00000F0C2F8606C40F0100060642046BDE854
:1057D000324001F048B82DE9FC41089C05460E46D0
:1057E00090461F46286801683140B1420CBF012035
:1057F0000020404527D114F1010FF3D000F0CCFF79
:10580000C01B844200D30CB903201DE02968C8687E
:105810004207E7D5802E18BF402EE3D00868020764
:10582000E0D5002300930A6800924968009100982F
:10583000284600F089F805F1400008214160002267
:105840000270012000E00020BDE8F68181628285BF
:10585000C28500214164222280F84220016921B1E1
:105860000168CA6842F48072CA6001684A6942F0FD
:1058700001024A610068C16841F02001C160002056
:1058800070477CB504461346A162A385002060647E
:10589000222284F842209448E26B9062E26B9348A3
:1058A000D062E26B924810630020E56B68630A46A1
:1058B0002668E06B311D00F061F90021009121683C
:1058C0000A68009249680091009A206930B100F09E
:1058D00022F841F4807100F012F8F8D100F013F8CA
:1058E00041F0010100F00BF8F8D100F00CF841F0A4
:1058F000400100F004F8F8D176BD21F4F07142E8DF
:10590000001000287047206800F1140151E8001FC2
:1059100000F114027047206800F10C0151E8001FEB
:1059200000F10C027047016801F10C0252E8002FEF
:1059300001F10C0322F0C00243E800210029F2D15A
:10594000202180F841107047016801F10C0252E8F3
:10595000002F01F10C0322F4907243E8002100298A
:10596000F2D1016801F1140252E8002F520801F14E
:105970001403520043E800210029F2D1016B0129F0
:105980000CD1016801F10C0252E8002F01F10C0367
:1059900022F0100243E800210029F2D1202180F8F2
:1059A0004210002202637047406A0021C185C18411
:1059B00000F059BF1CB590F84210222956D18168D9
:1059C000826AB1F5805F0AD1016969B903685968D3
:1059D000C1F308011180826A911C81620FE00029E5
:1059E00004BF0169002902D10368596803E0016816
:1059F000496801F07F011170816A4A1C8262C18D81
:105A0000491EC18589B279BB0168CA6822F02002AB
:105A1000CA600168CA6822F48072CA6001684A6973
:105A2000520852004A61202180F84210002242634D
:105A3000016B012916D10263FFF7B8FC22F01002B6
:105A4000FFF7B0FCF8D102681168CB0606D5002438
:105A5000009413680093526800920099818D00F0C1
:105A600003FF01E000F002FF002016BD022016BD7A
:105A700010B5044622681169E06821F440510143E1
:105A80001161D3681B49A0680B4021690343606919
:105A90000B430343D3605169A06921F44071014372
:105AA000516115498A4202D1FEF7CBFE01E0FEF7B3
:105AB000C0FE6268192148439200B0FBF2F16423F2
:105AC000B1FBF3F203FB121109013231B1FBF3F028
:105AD00000F0F00101EB0211226800F00F00401805
